:020000040800F2
:10000000C0060020DD010008A50A00082B0A000830
:10001000A10A0008ED0400083D1D000800000000D2
:10002000000000000000000000000000C9150008EA
:100030001905000800000000F3010008711700080E
:10004000F7010008F7010008F70100087111000826
:10005000F7010008F7010008F7010008F7010008A0
:10006000F7010008F7010008F7010008F701000890
:10007000F7010008F7010008F7010008F701000880
:10008000F7010008F7010008F7010008F701000870
:10009000F7010008F7010008F7010008F701000860
:1000A000F7010008F7010008F7010008F701000850
:1000B000F7010008F7010008F7010008F701000840
:1000C000F7010008F7010008F7010008F701000830
:1000D000F7010008F7010008F7010008F701000820
:1000E0001D050008F7010008F7010008F7010008E6
:1000F000F7010008F7010008F7010008F701000800
:10010000F7010008A1140008F7010008F701000832
:10011000F7010008F7010008991B0008F701000823
:10012000F7010008F7010008F7010008F7010008CF
:1001300000F002F800F042F80AA090E8000C8244B7
:100140008344AAF10107DA4501D100F037F8AFF294
:10015000090EBAE80F0013F0010F18BFFB1A43F0A5
:10016000010318474C2000006C200000103A24BF07
:1001700078C878C1FAD8520724BF30C830C144BF0C
:1001800004680C607047000000230024002500264E
:10019000103A28BF78C1FBD8520728BF30C148BFEA
:1001A0000B607047642900F07B80782900F0B480F0
:1001B000002070471FB51FBD10B510BD00F068F9D5
:1001C0001146FFF7F7FF01F027FE00F086F903B4B0
:1001D000FFF7F2FF03BC01F0B3FD000009488047C0
:1001E00009480047FEE7FEE7FEE7FEE7FEE7FEE719
:1001F000FEE7FEE7FEE7FEE704480549054A064B31
:10020000704700007517000831010008C000002089
:10021000C0060020C0020020C0020020704700007D
:100220000FB4044910B503AA029800F017F910BCE6
:100230005DF814FB040000202DE9F0410E46044651
:10024000002020622046E168884730B3252805D089
:10025000D4E901219047206A401CF2E7E16820467A
:1002600000278847050018D0A5F14100192802D8B9
:1002700020354FF400673246294620462760FFF7B5
:1002800091FF40B1012804D0F61D26F0070608367C
:10029000D8E7361DD6E72846DAE7206ABDE8F081C0
:1002A0002DE9F0410646002410687529314616A54F
:1002B00010D0AFF30080002802DA404213A507E017
:1002C00031688A0701D512A502E0490704D511A5B6
:1002D000012401E0AFF3008000210A2206F1240787
:1002E00009E0B0FBF2FCB0FBF2F302FB1C00303083
:1002F00078541846491C0028F3D123462A46304634
:10030000BDE8F04100F038B8000000002D0000000A
:100310002B0000002000000070B504460D46214669
:100320001068AFF300802188090502D50F4A7A448E
:1003300002E00E4A7A440E32002104F1240305E063
:1003400000F00F060009965D5E54491C0028F7D1A5
:1003500020780023000704D5702D02D009B10223B4
:1003600011322046BDE8704000F006B83C1E000087
:1003700070477047704770472DE9F0470D46994622
:100380009246044600F124080168880604D5E06915
:1003900021F01001216000E00120A84201DD471B8F
:1003A00000E00027A1697A1902EB0900081AA06190
:1003B0002078C00602D42046AFF30080002608E073
:1003C000D4E901211AF806009047206A401C761CE7
:1003D00020624E45F4DB2078C0060AD52046AFF3F4
:1003E000008006E0D4E9012130209047206A401CBB
:1003F0002062381EA7F10107F4DC07E0D4E90121EF
:1004000018F805009047206A401C2062281EA5F1BC
:100410000105F3DC2046AFF300802078000602D50A
:100420000220BDE8F0870120FBE7000001694A1CBB
:1004300002610878704700B58FB0CDE90131002125
:10044000059105497944CDE9031011466846FFF747
:10045000F3FE0FB000BD0000E5FFFFFF074B70B5D6
:100460000D467B44FFF7E7FF0446284600F008F8F6
:1004700010B14FF0FF3070BD204670BD97190000DD
:10048000007B00F08000704700487047600000204B
:100490007546FFF7F9FFAE4605006946534620F062
:1004A0000700854618B020B5FFF7A6FEBDE820403E
:1004B0004FF000064FF000074FF000084FF0000B20
:1004C00021F00701AC46ACE8C009ACE8C009ACE8D3
:1004D000C009ACE8C0098D46704710B50446AFF3BB
:1004E00000802046BDE81040FFF771BE00BFFEE768
:1004F000014600BF0748406B00F045000028F9D0D6
:1005000040F2FF50034A90631046406908221040B1
:10051000C0B27047008001407047000010B54FF432
:10052000806000F02FF8C8B14FF4806000F01CF834
:100530000B48007838B94FF480500A490860012010
:10054000074908700AE006480078012806D1000330
:100550000449091D086002200149087010BD00000F
:1005600042000020100C0140014908607047000063
:1005700014040140024909680143014A11607047AF
:1005800010040140014600200022074B1B6803EACB
:100590000102054B14331B680B4013B10AB1012053
:1005A00000E00020704700000004014000212349C2
:1005B0008279002A3AD00A46126803689A430B46A9
:1005C0001A600A1D126803689A430B1D1A600279AB
:1005D00011440A6803681A430A60184A083212680C
:1005E00003689A43154B08331A601A1D1268036892
:1005F0009A43124B0C331A604279102A0ED11A1FFB
:10060000126803681A430D4B08331A601A1D1268EA
:1006100003681A43094B0C331A600DE0074942790D
:1006200011440A6803681A430A6005E0027911441C
:100630000A6803689A430A6070470000000401409A
:1006400008B50121182000F059FC4FF47040ADF8B6
:10065000000010208DF8030003208DF80200694689
:10066000064800F053F9FF20ADF8000048208DF84F
:1006700003006946024800F049F908BD000C01403A
:100680000010014051B18200A2F1C042126842F054
:1006900001038200A2F1C042136009E08200A2F1CE
:1006A000C0421268034B1A408300A3F1C0431A6092
:1006B00070470000FEFF0F00D0E901121143C2682D
:1006C0001143026911434269114382691143C269AE
:1006D0001143026A1143426A1143826A1143C26A9A
:1006E0001143026B114302689200A2F1C0421160F3
:1006F000816808290BD101688900A1F1C04109680E
:1007000041F0400201688900A1F1C0410A60416BDB
:100710000968426B526841EA0211426B926841EAF1
:100720000221426B928941EA0241426B128A41EAFC
:100730000251426B127D41EA0261426B92691143A0
:100740000268521C9200A2F1C0421160C16AB1F568
:10075000804F1BD1816B0968826B526841EA02119C
:10076000826B926841EA0221826B128A41EA02514D
:10077000826B127D41EA0261826B926911430268C9
:100780009200A2F1C042C2F8041107E06FF070427B
:1007900001688900A1F1C041C1F80421704700003F
:1007A00000B597B00121080200F098FB01214FF439
:1007B000F07000F0A3FB4CF20370ADF800001820BD
:1007C0008DF8030003208DF802006946304800F0E0
:1007D0009DF84FF68070ADF8000069462D4800F096
:1007E00095F84FF23F00ADF8000069462A4800F046
:1007F0008DF83F20ADF800006946284800F086F8E3
:100800004FF46050ADF800006946214800F07EF8D2
:100810003020ADF8000069461D4800F077F84FF42D
:100820008060ADF8000069461C4800F06FF80320B6
:10083000ADF800006946174800F068F80020019004
:1008400002900220039000200490059006900790EB
:1008500004200890002009900A9010200B9000209E
:100860000C900E900F9010904FF48050119000203B
:1008700012901390149001A81590169008A8FFF7F5
:100880001BFF01210420FFF7FDFE17B000BD000093
:100890000014014000180140001C014000200140EC
:1008A00008B50121082000F029FB4FF48060ADF865
:1008B000000004208DF8030003208DF80200694633
:1008C000014800F023F808BD000C014030B50022BB
:1008D0008B071C0F0F2303FA04F20B4B8C1053F8F9
:1008E00024309343084C8D1044F8253023468C1057
:1008F00053F824308C07240F00FA04F42343024CED
:100900008D1044F8253030BD080001402DE9F0413C
:10091000024600250026002000230024002791F82D
:1009200003C00CF00F0591F803C00CF0100CBCF1E3
:10093000000F03D091F802C04CEA050591F800C001
:10094000BCF1000F31D0146800202BE04FF0010CF7
:100950000CFA00F3B1F800C00CEA03069E4220D165
:1009600083004FF00F0C0CFA03F7BC4305FA03FCAD
:100970004CEA040491F803C0BCF1280F06D14FF0F3
:10098000010C0CFA00FCC2F814C00AE091F803C094
:10099000BCF1480F05D14FF0010C0CFA00FCC2F875
:1009A00010C0401C0828D1D31460B1F800C0BCF1BD
:1009B000FF0F34DD546800202EE000F1080C4FF0EA
:1009C000010808FA0CF3B1F800C00CEA03069E42D5
:1009D00021D183004FF00F0C0CFA03F7BC4305FA4A
:1009E00003FC4CEA040491F803C0BCF1280F05D1C4
:1009F00000F1080C08FA0CF8C2F8148091F803C052
:100A0000BCF1480F07D100F1080C4FF0010808FABB
:100A10000CF8C2F81080401C0828CED35460BDE802
:100A2000F081416170470161704700BFFEE70146F8
:100A3000CA1701EB92729210A1EB820292B9642064
:100A400091FBF0F200FB121050B94FF4C87091FB0B
:100A5000F0F200FB121008B9012070470020FCE7FB
:100A60000120FAE70020F8E708B50121042000F092
:100A700045FA4FF48070ADF8000010208DF80300A7
:100A800003208DF8020069460448FFF73FFF4FF44A
:100A900080710248FFF7C7FF08BD00000008014051
:100AA00000BFFEE7704700001CB511A103C9CDE9E6
:100AB0000001102000F04CFD05226946302000F0B6
:100AC0006BF905226946102000F0B4F8002406E016
:100AD0001DF80400A52800D003E0601CC4B2052C5A
:100AE000F6DB00BF052C01D001201CBD0020FCE777
:100AF000A5A5A5A5A500000008B501214FF48270A9
:100B000000F0FCF91020ADF800008DF80300032080
:100B10008DF8020069462E48FFF7F8FE10212C4898
:100B2000FFF781FFC020ADF8000010208DF8030012
:100B300003208DF8020069462648FFF7E7FE4FF4D0
:100B40008070ADF8000028208DF803006946214828
:100B5000FFF7DCFE4FF4E0711E48FFF762FF012152
:100B600041F2040000F0CAF9E020ADF800001820BE
:100B70008DF8030003208DF8020069461448FFF742
:100B8000C5FEE0211248FFF74EFF00201249088001
:100B90004FF48270488000208880C88008814FF41C
:100BA00000704881382088810020C8810720088291
:100BB0000A4800F0EBFC0121084800F0DBFCFF20B4
:100BC00000F0AEFC4020034948618020086108BD68
:100BD0000008014000200140440000200030014096
:100BE00010B5402011494861052211492A2000F022
:100BF000D3F80121212000F0EDF80121222000F09E
:100C0000E9F82821252000F0E5F82021312000F026
:100C1000E1F80F21262000F0DDF80F21202000F060
:100C2000D9F840200149086110BD000000200140B2
:100C3000692100082DE9F04107460D46164680203F
:100C40000A494861384600F06BFC8046002405E004
:100C5000FF2000F065FC2855601CC4B2B442F7DBED
:100C60008020024908614046BDE8F0810020014033
:100C700070B50446802007494861204600F050FCCA
:100C8000FF2000F04DFC05468020024908612846FF
:100C900070BD00000020014070B50446102000F037
:100CA00057FC0720FFF7E4FF05462946272000F000
:100CB00091F805F0400050B1202221466120FFF755
:100CC000B9FFFF21E22000F085F8002070BD01206F
:100CD000FCE7000010B54020134948610522134984
:100CE000302000F059F8052211492A2000F054F86C
:100CF0000121212000F06EF80121222000F06AF885
:100D00001A21242000F066F82821252000F062F83E
:100D10000F21262000F05EF80E21202000F05AF866
:100D200040200149086110BD0020014064210008F5
:100D30006921000870B50546102000F009FC40202C
:100D40001449486120222946A02000F025F84020BF
:100D50001049086100BF0F48806800F480700028C7
:100D6000F9D10720FFF784FF04462146272000F031
:100D700031F804F0100028B1FF21E12000F02AF83A
:100D8000102070BD04F0200008B12020F9E7FF20FA
:100D9000F7E70000002001402DE9F04107460C462E
:100DA000154680200A494861384600F0B9FB804664
:100DB000002605E014F8010B00F0B2FB701CC6B26F
:100DC000AE42F7DB8020024908614046BDE8F08171
:100DD0000020014070B505460C4680200649486158
:100DE000284600F09DFB0646204600F099FB802037
:100DF00001490861304670BD0020014070B50021F6
:100E000000230F22C47804B3154C246804F4E06472
:100E1000C4F5E064210AC1F10403CA40447804FA2D
:100E200003F184781440214309010E4C0678A15542
:100E3000047804F01F050124AC4005786D11AD0065
:100E400005F1E025C5F8004109E0047804F01F052C
:100E50000124AC40044D0678761145F8264070BD5B
:100E60000CED00E000E400E080E100E00249014315
:100E7000024A1160704700000000FA050CED00E026
:100E80001CB50A210120FFF721FD4FF4806000907E
:100E900000208DF804000C208DF8050001208DF84D
:100EA00006006846FFF782FB4FF48060FFF762FBA5
:100EB0001CBD08B54FF4C060FFF7D8FF28208DF89F
:100EC000000000208DF801008DF8020001208DF84F
:100ED00003006846FFF792FF08BD000029B1064AEB
:100EE00052690243044B5A6104E0034A5269824347
:100EF000014B5A61704700000010024029B1064AB8
:100F000092690243044B9A6104E0034A9269824366
:100F1000014B9A61704700000010024030B500217B
:100F20000022002400232D4D6D6805F00C0121B135
:100F3000042905D0082923D105E0294D056022E0C8
:100F4000274D05601FE0254D6D6805F47012234D97
:100F50006D6805F48034022505EB92421CB9214DE1
:100F6000554305600BE01D4D6D6805F400351DB15E
:100F70001C4D5543056002E0194D5543056002E0E4
:100F8000174D056000BF00BF144D6D6805F0F001FE
:100F90000909154D6B5C0568DD4045600F4D6D68B6
:100FA00005F4E061090A104D6B5C4568DD40856021
:100FB0000A4D6D6805F46051C90A0B4D6B5C4568BC
:100FC000DD40C560054D6D6805F44041890B074D56
:100FD0006B5CC568B5FBF3F5056130BD00100240E0
:100FE00000127A0000093D000800002018000020CF
:100FF00070B50026002400253A4806883604001DF6
:10100000008806443848B6FBF0F438480088A0420F
:101010003AD036490C8040F2B2750EE02846FFF710
:1010200006FD30B1B4F5B77F02D3A4F5B77402E082
:1010300006E0A4F26D14681C85B2B4F5B67FEDD855
:1010400000BF2B488580002516E029498888FFF7D6
:10105000EEFC30B1012D04D11D2C01D31D3C09E063
:101060000CE02448405DA04203D82248405D241A89
:1010700000E003E0681C85B21C2CE6D200BF681CAF
:101080001B498871601CC8711748B6FBF0F100FB62
:1010900011644FF46160B4FBF0F0154908704FF42F
:1010A0006160B4FBF0F100FB11403C21B0FBF1F0BA
:1010B0000F4948704FF46160B4FBF0F100FB114040
:1010C0003C21B0FBF1F201FB1200094988700B468C
:1010D000DA799979988800F00FF8054908720020AC
:1010E00070BD000018280040805101004000002021
:1010F0005600002050200008F0B503460C46154667
:10110000642093FBF0F0C6B2642093FBF0F700FB81
:101110001730C1B2132E02DD01F16400C1B20846DE
:10112000CF1701EB977701EBA707BAB2072092FB25
:10113000F0F700FB172082B25719601EDFF82CC0B1
:101140001CF80000384482B2CF1701EB9777BF102C
:10115000A1EB87071FB9032C01DA501E82B20720CA
:1011600092FBF0F700FB1720C0B2F0BD442000084E
:1011700000B51048008800F0010008B1FFF738FF03
:101180000C48008800F0020028B10A48008820F0CE
:101190000200084908800748008840F6FA710840B4
:1011A0000449088000BF0348008800F020000028A0
:1011B000F9D000BD0428004008B501210820FFF740
:1011C0009DFE4FF40070ADF8000048208DF803003C
:1011D00003208DF8020069461248FFF797FB4FF491
:1011E00000711048FFF71FFC4FF48070ADF800004D
:1011F00010208DF8030069460A48FFF787FB4FF47B
:1012000080710848FFF70FFC0648001D006820F0B9
:10121000F0000449091D08600846006840F03000ED
:10122000086008BD000C014010B5322000F0C8FD78
:101230004FF400700B49086040100860322000F045
:10124000BFFD4FF480700749091D0860322000F08F
:10125000B7FD4FF400700349091D0860322000F00B
:10126000AFFD10BD100C014070B500241B48006894
:1012700020F0F000194908600846006840F080003E
:10128000086008251BE0322000F09AFD4FF48070C2
:1012900012490C3108606006040E1048001D0068F9
:1012A00000F4007008B1601CC4B2322000F088FD68
:1012B0004FF48070094910310860681EC5B2002DD6
:1012C000E1DC0648006820F0F000044908600846A8
:1012D000006840F030000860204670BD040C0140FA
:1012E00070B50446002500F023F8422000F056F8BF
:1012F000642000F065FD204600F050F8642000F006
:101300005FFD00F02FF8642000F05AFD00F010F8A7
:10131000432000F043F8642000F052FDFFF7A4FFE3
:101320000546FFF781FF00F01DF8284670BD00005C
:1013300010B54FF400700A49086040100860322070
:1013400000F03EFD4FF400700549091D0860322091
:1013500000F036FD4FF480700149091D086010BD92
:10136000100C014010B54FF400700B49086032209A
:1013700000F026FD4FF480700749091F08603220F5
:1013800000F01EFD4FF400700349091F0860322071
:1013900000F016FD10BD0000140C014070B50446AD
:1013A00000261FE004F0800020B14FF400702849AF
:1013B000086004E04FF400702549091D08606006CC
:1013C000040E322000F0FCFC4FF4807020490860CD
:1013D000322000F0F5FC4FF480701D49091D0860B3
:1013E000701CC6B2082EDDDB19480C38006820F0EE
:1013F000F00017490C3908600846006840F080008A
:101400000860322000F0DCFC4FF480701049086066
:10141000322000F0D5FC0E480838006800F4007057
:1014200008B1012500E000254FF480700849091D2E
:10143000086007480C38006820F0F00004490C39B7
:1014400008600846006840F030000860284670BD1B
:10145000100C014070B505460C460026FFF768FFEA
:101460004220FFF79BFF00B10126642000F0A8FC9A
:101470002846FFF793FF00B10126642000F0A0FC8E
:101480002046FFF78BFF00B10126FFF76BFF3046C8
:1014900070BD000001498863704700000080014072
:1014A00010B500F011F810BD29B1064AD26B024305
:1014B000044BDA6304E0034AD26B8243014BDA63E4
:1014C000704700000080014010B5114800680128F5
:1014D0000BD100200F49886040F24C40C8600C20BE
:1014E000FFF706F80C49087002E000200A4908706E
:1014F0004FF48070FFF7CEFF00214FF48070FFF7AC
:10150000D3FF0120054908600348007810BD0000A2
:101510002C0000200080014030000020340000201A
:10152000014600BF0948008900F002000028F9D0F8
:101530000648818100BF0548008900F001000028AD
:10154000F9D002488089C0B27047000000300140E5
:1015500010B50446054884810146054800F016F898
:101560000121034800F006F810BD000044000020EF
:101570000030014021B1028842F04002028004E0C4
:1015800002884FF6BF731A400280704710B50022E0
:10159000028802F441520B884C8823438C882343F1
:1015A000CC8823430C8923434C8923438C892343D0
:1015B000CC8923431A430280838B4FF2FF7423406C
:1015C00083830B8A038210BD7047000070B500242E
:1015D000FFF766F9FFF7F0FD80211220FFF73AFFD1
:1015E00008B1002070BD322000F0CCFB0B20FFF7CB
:1015F00077FE0546294615A0FEF712FE732D01D091
:101600000020EFE70A20FFF76BFE0546762D01D09C
:101610000020E7E729460DA0FEF702FE00240DE0BA
:101620000E4A02EB440251780C4A12F81400FFF7FC
:1016300011FF022000F0A6FB601C84B2722CEFDBCD
:10164000FFF71EFCFFF735FC0120CBE74465766908
:10165000636549443A25640D0A00000080200008B3
:1016600010B500F001F810BD0CB5002001900090FD
:101670003348006840F480303149086000BF30488A
:10168000006800F4003000900198401C0190009820
:1016900018B90198B0F5A06FF1D12948006800F49D
:1016A000003010B10120009001E00020009000986F
:1016B000012843D12348006840F010002149086008
:1016C0000846006820F0030008600846006840F003
:1016D000020008601A484068194948600846406896
:1016E00048600846406840F48060486008464068AA
:1016F00020F47C1048600846406840F4E8104860D8
:101700000846006840F08070086000BF0C48006820
:1017100000F000700028F9D00948406820F003006C
:10172000074948600846406840F00200486000BF32
:101730000348406800F00C000828F9D10CBD0000F7
:101740000010024000200240042808D14FF0E021A0
:10175000096941F004014FF0E022116107E04FF008
:10176000E021096921F004014FF0E0221161704786
:101770007047000010B51348006840F0010011499F
:10178000086008464068104908400E49486008460D
:1017900000680E4908400B4908600846006820F4BC
:1017A000802008600846406820F4FE0048604FF43E
:1017B0001F008860FFF754FF4FF000600449086085
:1017C00010BD0000001002400000FFF8FFFFF6FE11
:1017D00008ED00E070B5054600240021084600F041
:1017E000BBF900F0CEF900BF03E0284600F0C5F9D0
:1017F000641C02488442F8D370BD000000770100E9
:1018000008B501210802FFF769FB012140F2E91048
:10181000FFF774FB4CF23370ADF8000003208DF835
:10182000020018208DF8030069460D48FFF76EF896
:101830004FF68070ADF8000069460A48FFF766F879
:101840000120ADF8000069460748FFF75FF84FF444
:101850008050ADF8000069460448FFF757F808BD0E
:101860000014014000180140001C0140002001400C
:1018700000B59DB001200790002008900F2009902E
:1018800000200A900B900C900D9000900190032086
:1018900002900020039004900590069006200E9080
:1018A00000200F90109010201190002012901490A2
:1018B0001390159016904FF48050179000201890B8
:1018C0004FF48040199000201A9007A81B90CDF883
:1018D00070D00EA8FEF7F0FE01210620FEF7D2FE22
:1018E0001DB000BD08B501210420FFF707FB022051
:1018F000ADF8000010208DF8030003208DF80200E1
:1019000069468D48FFF702F802218B48FFF78BF8F4
:10191000FFF776FFFFF7ACFF322000F033FA01212A
:10192000002000F034F9322000F02CFA002000F002
:101930000DF9824908800846018881A0FEF770FCF5
:101940000021084600F023F90021084600F01FF9A5
:101950000021084600F01BF90021084600F017F9A5
:101960000F2000F00FFA40F60801082000F00FF9F0
:101970001021084600F00BF94FF4C4414FF4806089
:1019800000F005F940F606414FF4407000F0FFF812
:1019900049F60F5140F2013000F0F9F840F60531F8
:1019A00040F2023000F0F3F841F2172140F2033028
:1019B00000F0EDF843F233314FF4417000F0E7F8F6
:1019C00041F2127140F2053000F0E1F849F20B519A
:1019D00040F2063000F0DBF840F60D7140F20730BF
:1019E00000F0D5F840F20C614FF4427000F0CFF8EF
:1019F000002140F2093000F0CAF840F20221112023
:101A000000F0C5F840F20111122000F0C0F80121E9
:101A1000132000F0BCF80121072000F0B8F84FF4C3
:101A2000E6614FF4807000F0B2F840F2372140F2E6
:101A3000011000F0ACF84FF42C5140F2031000F00C
:101A4000A6F84FF480414FF4207000F0A0F848F25F
:101A5000B0114FF4817000F09AF80F2000F092F965
:101A60004FF48071012000F092F84FF48071022051
:101A700000F08DF841F21801032000F088F80121F0
:101A8000092000F084F800210C2000F080F84FF4C9
:101A90000041902000F07BF800210F2000F077F843
:101AA00000214FF4047000F072F8EF2140F2112091
:101AB00000F06DF8002140F2122000F068F840F2CA
:101AC0008F1140F2132000F062F800214FF4A06063
:101AD00000F05DF8002140F2015000F058F85F215D
:101AE00040F2025000F053F8012140F2014000F0B2
:101AF0004EF8002140F2044000F049F80F2000F0B9
:101B000041F94FF48071072000F041F80F2000F0F8
:101B100039F900214FF4007000F039F8002140F24B
:101B2000012000F034F802200349103108604FF61C
:101B3000FF70FFF74FFE08BD0008014020000020A5
:101B4000205446542049443A25780A0001464FF073
:101B5000D84001804088704710B503460C462146A6
:101B60004FF4007000F013F840F28F10C01A81B2E9
:101B700040F2012000F00BF810BD4FF0D841488032
:101B8000704740F202204FF0D841088070474FF074
:101B9000D84210805180704710B50121084800F0EC
:101BA0001EF838B10748017807A0FEF739FB00207E
:101BB000044908700121024800F00EF810BD000031
:101BC00000100040430000206672616D653A256494
:101BD0006670730D0A000000CA430282704730B578
:101BE0000246002000230024158A05EA0103958996
:101BF00005EA010413B10CB1012000E0002030BD62
:101C000021B1828942F40052828104E082894DF63A
:101C1000FF731A4082817047F0B503460024002606
:101C20000025002040F66A17B94200D100BF1846CF
:101C3000C1F3421401F01F06012707FA06F5012C33
:101C400001D10C3004E0022C01D1103000E014303E
:101C50001AB107682F43076002E00768AF430760C7
:101C6000F0BD00002DE9F04786B005460E46002481
:101C7000A24600BFA1460027B08900B100BF2F4691
:101C80002C8A4CF6FF700440F08804432C82AC8907
:101C90004EF6F3100440B088318908437189084337
:101CA0000443AC81AC8A4FF6FF400440B089044342
:101CB000AC8201A8FFF732F91F48874202D1DDF854
:101CC00010A001E0DDF80CA0A88900F4004040B1AC
:101CD0000AEBCA0000EB0A1031684900B0FBF1F8CA
:101CE00007E00AEBCA0000EB0A1031688900B0FB7C
:101CF000F1F86420B8FBF0F004012009642101FB35
:101D00001089A88900F4004040B1322000EBC900DE
:101D1000B0FBF1F000F00700044308E0322000EBD4
:101D200009106421B0FBF1F000F00F0004432C8196
:101D300006B0BDE8F08700000038014000BFFEE7B4
:101D4000014600BF7047000010B504466FF0040064
:101D5000FFF7FAFCE11704EB5171C1F3C701074A21
:101D600011701046007800EB4001C1EBC0104FF637
:101D7000FF7101EAC0000249088010BD0000002088
:101D80000200002001460D4A12884A434FF0E0232A
:101D90005A6100229A6101221A6100BF4FF0E022CD
:101DA000106900F001021AB100F48032002AF5D067
:101DB00000224FF0E0231A619A6170470200002070
:101DC00001460D4A12784A434FF0E0235A6100223F
:101DD0009A6101221A6100BF4FF0E022106900F001
:101DE00001021AB100F48032002AF5D000224FF02F
:101DF000E0231A619A6170470000002000BF054A85
:101E0000128802F04002002AF9D0C2B2014B1B1D19
:101E10001A8070470038014088B00024FFF7AAFC00
:101E20004820FFF791FF4FF4165000F0BBF84FF435
:101E3000A060FFF71BF8FEF717FEFEF7B1FCFFF7F7
:101E400051FDFEF759FEFEF72FFE18B142A0FEF736
:101E5000E7F902E045A0FEF7E3F9FEF7F1FB4FF4E6
:101E6000804047490860091D08608010086000BF75
:101E7000FFF7ACFB0128FBD140034149091D086075
:101E800080000860091F0860091D08608010091F94
:101E900008608000086000203A490870FEF7A0FE44
:101EA00000BF6846FEF7F8FE0028FAD14FF48070B4
:101EB000354908604FF47A70FFF764FF4FF4807083
:101EC0003149091F08604FF47A70FFF75BFF41E06A
:101ED0002C48007802283DD1FEF7FCFE4FF400505C
:101EE0002749091D086080000860091F0860091D56
:101EF00008608010091F086080000860002518E055
:101F00004FF400401E49091D086020488068C0B297
:101F10000DF80400641C4FF40040091F0860202CD9
:101F200006D3002400BF6846FEF704FF2028FAD13C
:101F30006D1CB5F5163FE3D3002012490870FEF77B
:101F40004FFE00BF6846FEF7A7FE0028FAD110A09A
:101F5000FEF766F9BCE700004E524632344C303191
:101F6000B2BBB4E6D4DAA3A10D0A00004E52463249
:101F7000344C3031B4E6D4DAA3A10D0A00000000DD
:101F8000100C0140420000201408014000100140E4
:101F9000CAD5B5BDCDACB2BDD0C5BAC5A3A10D0AD9
:101FA0000000000010B586B00446012144F205008F
:101FB000FEF7A4FF4FF40070ADF8140003208DF875
:101FC000160018208DF8170005A91C48FEF79EFC86
:101FD0004FF48060ADF8140004208DF8170005A9B7
:101FE0001648FEF793FC25208DF8000003208DF89D
:101FF00001008DF8020001208DF803006846FEF70D
:10200000FDFE01940020ADF80800ADF80A00ADF81F
:102010000C00ADF810000C20ADF80E0001A9084826
:10202000FFF720FE012240F225510548FFF7F4FD9D
:1020300001210348FFF7E4FD06B010BD0008014090
:1020400000380140000303060104060205000305F1
:102050001F1C1F1E1F1E1F1F1E1F1E1F4A616E46B4
:1020600065624D61724170724D61794A756E4A7553
:102070006C4175675365704F63744E6F764465634A
:102080003A044010121432801716180419021A7BF1
:1020900003060C0C15023E007000710172117309E9
:1020A000A20211007A207B1C7C287D3C7E557F6833
:1020B000807681808288838F849685A386AF87C44B
:1020C00088D789E813E0000010000D001420A50552
:1020D000AB072475256326A59F78A068A103A6DF1A
:1020E000A7DFA8F0A990AA9413E50E610F4B160282
:1020F0001E27210222912907330B350B371D38711A
:10210000392A3C784D404E20695D6B0074198D4F23
:102110008E008F0090009100920096009A80B0840B
:10212000B10CB20EB382B80A431444F04534465899
:102130004728483A59885A885B445C675D495E0E77
:10214000640465206605940495086C0A6D554F80FB
:10215000508051005222535E54806E116F9F550083
:102160005640578034431010013443101001303171
:1021700032333435363738394142434445464030AE
:102180005800303132333435363738396162636460
:1021900065664030780000004A756C203237203286
:1021A0003031370030393A35333A333900000000E6
:1021B000D021000800000020440000006C0100084D
:1021C00014220008440000207C060000880100085A
:1021D00000000000000000000000000001020304F5
:1021E0000102030406070809020406080000FFFFB5
:1021F00000000000000000000000000000000000DF
:10220000000000000000000098210008A421000840
:0422100000000000CA
:0400000508000131BD
:00000001FF
