:020000040800F2
:10000000C8060020DD010008B10900081F0900082A
:1000100095090008350500083519000800000000A2
:100020000000000000000000000000005512000861
:100030006105000800000000F301000869130008D2
:10004000F7010008F7010008F70100085110000847
:10005000F7010008F7010008F7010008F7010008A0
:10006000F7010008F7010008F7010008F701000890
:10007000F7010008F7010008F7010008F701000880
:10008000F7010008F7010008F7010008F701000870
:10009000F7010008F7010008F7010008F701000860
:1000A000F7010008F7010008F7010008F701000850
:1000B000F7010008F7010008F7010008F701000840
:1000C000F7010008F7010008F7010008F701000830
:1000D000F7010008F7010008F7010008F701000820
:1000E00065050008F7010008F7010008F70100089E
:1000F000F7010008F7010008F7010008F701000800
:10010000F7010008A5100008F7010008F701000832
:10011000F7010008F701000891170008F70100082F
:10012000F7010008F7010008F7010008F7010008CF
:1001300000F002F800F042F80AA090E8000C8244B7
:100140008344AAF10107DA4501D100F037F8AFF294
:10015000090EBAE80F0013F0010F18BFFB1A43F0A5
:1001600001031847F81C0000181D0000103A24BFB6
:1001700078C878C1FAD8520724BF30C830C144BF0C
:1001800004680C607047000000230024002500264E
:10019000103A28BF78C1FBD8520728BF30C148BFEA
:1001A0000B607047642900F07B80782900F0B480F0
:1001B000002070471FB51FBD10B510BD00F068F9D5
:1001C0001146FFF7F7FF01F005FC00F086F903B4D4
:1001D000FFF7F2FF03BC01F0AFFB000009488047C6
:1001E00009480047FEE7FEE7FEE7FEE7FEE7FEE719
:1001F000FEE7FEE7FEE7FEE704480549054A064B31
:10020000704700006D13000831010008C80000208D
:10021000C8060020C8020020C80200207047000065
:100220000FB4044910B503AA029800F017F910BCE6
:100230005DF814FB040000202DE9F0410E46044651
:10024000002020622046E168884730B3252805D089
:10025000D4E901219047206A401CF2E7E16820467A
:1002600000278847050018D0A5F14100192802D8B9
:1002700020354FF400673246294620462760FFF7B5
:1002800091FF40B1012804D0F61D26F0070608367C
:10029000D8E7361DD6E72846DAE7206ABDE8F081C0
:1002A0002DE9F0410646002410687529314616A54F
:1002B00010D0AFF30080002802DA404213A507E017
:1002C00031688A0701D512A502E0490704D511A5B6
:1002D000012401E0AFF3008000210A2206F1240787
:1002E00009E0B0FBF2FCB0FBF2F302FB1C00303083
:1002F00078541846491C0028F3D123462A46304634
:10030000BDE8F04100F038B8000000002D0000000A
:100310002B0000002000000070B504460D46214669
:100320001068AFF300802188090502D50F4A7A448E
:1003300002E00E4A7A440E32002104F1240305E063
:1003400000F00F060009965D5E54491C0028F7D1A5
:1003500020780023000704D5702D02D009B10223B4
:1003600011322046BDE8704000F006B8E81A0000DF
:1003700070477047704770472DE9F0470D46994622
:100380009246044600F124080168880604D5E06915
:1003900021F01001216000E00120A84201DD471B8F
:1003A00000E00027A1697A1902EB0900081AA06190
:1003B0002078C00602D42046AFF30080002608E073
:1003C000D4E901211AF806009047206A401C761CE7
:1003D00020624E45F4DB2078C0060AD52046AFF3F4
:1003E000008006E0D4E9012130209047206A401CBB
:1003F0002062381EA7F10107F4DC07E0D4E90121EF
:1004000018F805009047206A401C2062281EA5F1BC
:100410000105F3DC2046AFF300802078000602D50A
:100420000220BDE8F0870120FBE7000001694A1CBB
:1004300002610878704700B58FB0CDE90131002125
:10044000059105497944CDE9031011466846FFF747
:10045000F3FE0FB000BD0000E5FFFFFF074B70B5D6
:100460000D467B44FFF7E7FF0446284600F008F8F6
:1004700010B14FF0FF3070BD204670BD5315000025
:10048000007B00F080007047004870476800002043
:100490007546FFF7F9FFAE4605006946534620F062
:1004A0000700854618B020B5FFF7A6FEBDE820403E
:1004B0004FF000064FF000074FF000084FF0000B20
:1004C00021F00701AC46ACE8C009ACE8C009ACE8D3
:1004D000C009ACE8C0098D46704710B50446AFF3BB
:1004E00000802046BDE81040FFF771BE70B505469C
:1004F0000C46002C06DA2846FFF792FE05A0FFF70F
:100500008FFE05E02846FFF78BFE06A0FFF788FE6A
:1005100070BD00003AB1EDB4EFCABDCEAABCD9A3FC
:10052000A10A00003AB1EDB4EFCABDCEAAD5E6A348
:10053000A10A000000BFFEE7014600BF0748406B6C
:1005400000F045000028F9D040F2FF50034A9063C4
:100550001046406908221040C0B270470080014038
:100560007047000010B54FF4806000F027F8C8B164
:100570004FF4806000F01CF80B48007838B94FF455
:1005800080500A4908600120074908700AE00648BF
:100590000078012806D100030449091D08600220E3
:1005A0000149087010BD00004A000020100C0140F5
:1005B0000149086070470000140401400146002012
:1005C0000022074B1B6803EA0102054B14331B682A
:1005D0000B4013B10AB1012000E000207047000079
:1005E0000004014051B18200A2F1C042126842F001
:1005F00001038200A2F1C042136009E08200A2F16F
:10060000C0421268034B1A408300A3F1C0431A6032
:1006100070470000FEFF0F00D0E901121143C268CD
:100620001143026911434269114382691143C2694E
:100630001143026A1143426A1143826A1143C26A3A
:100640001143026B114302689200A2F1C042116093
:10065000816808290BD101688900A1F1C0410968AE
:1006600041F0400201688900A1F1C0410A60416B7C
:100670000968426B526841EA0211426B926841EA92
:100680000221426B928941EA0241426B128A41EA9D
:100690000251426B127D41EA0261426B9269114341
:1006A0000268521C9200A2F1C0421160C16AB1F509
:1006B000804F1BD1816B0968826B526841EA02113D
:1006C000826B926841EA0221826B128A41EA0251EE
:1006D000826B127D41EA0261826B9269114302686A
:1006E0009200A2F1C042C2F8041107E06FF070421C
:1006F00001688900A1F1C041C1F8042170470000E0
:1007000000B597B00121080200F048FB01214FF429
:10071000F07000F063FB4CF20370ADF8000018209D
:100720008DF8030003208DF802006946304800F080
:1007300067F84FF68070ADF8000069462D4800F06C
:100740005FF84FF23F00ADF8000069462A4800F01C
:1007500057F83F20ADF800006946284800F050F8EF
:100760004FF46050ADF800006946214800F048F8A9
:100770003020ADF8000069461D4800F041F84FF404
:100780008060ADF8000069461C4800F039F803208D
:10079000ADF800006946174800F032F800200190DB
:1007A000029002200390002004900590069007908C
:1007B00004200890002009900A9010200B9000203F
:1007C0000C900E900F9010904FF4805011900020DC
:1007D00012901390149001A81590169008A8FFF796
:1007E0001BFF01210420FFF7FDFE17B000BD000034
:1007F0000014014000180140001C0140002001408D
:100800002DE9F041024600250026002000230024A7
:10081000002791F803C00CF00F0591F803C00CF00D
:10082000100CBCF1000F03D091F802C04CEA050592
:1008300091F800C0BCF1000F31D0146800202BE00B
:100840004FF0010C0CFA00F3B1F800C00CEA0306FB
:100850009E4220D183004FF00F0C0CFA03F7BC43EB
:1008600005FA03FC4CEA040491F803C0BCF1280F1C
:1008700006D14FF0010C0CFA00FCC2F814C00AE0DB
:1008800091F803C0BCF1480F05D14FF0010C0CFAF0
:1008900000FCC2F810C0401C0828D1D31460B1F885
:1008A00000C0BCF1FF0F34DD546800202EE000F1E1
:1008B000080C4FF0010808FA0CF3B1F800C00CEA7C
:1008C00003069E4221D183004FF00F0C0CFA03F770
:1008D000BC4305FA03FC4CEA040491F803C0BCF1E4
:1008E000280F05D100F1080C08FA0CF8C2F81480A2
:1008F00091F803C0BCF1480F07D100F1080C4FF08C
:10090000010808FA0CF8C2F81080401C0828CED361
:100910005460BDE8F081416170470161704700BFDC
:10092000FEE70146CA1701EB92729210A1EB820218
:1009300092B9642091FBF0F200FB121050B94FF411
:10094000C87091FBF0F200FB121008B9012070474B
:100950000020FCE70120FAE70020F8E708B50121B4
:10096000042000F03BFA4FF48070ADF80000102036
:100970008DF8030003208DF8020069460448FFF754
:100980003FFF4FF480710248FFF7C7FF08BD00002A
:100990000008014000BFFEE710B502B910BD01E03C
:1009A00000F8011B131EA2F10102F9D100BFF5E707
:1009B000704700001CB511A103C9CDE90001082052
:1009C00000F00CFC05226946302000F06FF905228A
:1009D0006946102000F0B0F8002406E01DF804007D
:1009E000A52800D003E0601CC4B2052CF6DB00BFD4
:1009F000052C01D001201CBD0020FCE7A5A5A5A564
:100A0000A500000000B587B001214FF4847000F00C
:100A1000E5F94FF48050ADF8180010208DF81B0058
:100A200003208DF81A0006A92848FFF7E9FE4FF4C5
:100A300080512648FFF771FF4FF4C070ADF81800E1
:100A400006A92348FFF7DCFE4020ADF81800282057
:100A50008DF81B0006A91E48FFF7D2FE4FF4E07187
:100A60001B48FFF758FF00F05DFB0021194800F01C
:100A7000C7FB0020ADF804004FF48270ADF806000B
:100A80000020ADF80800ADF80A00ADF80C004FF4F6
:100A90000070ADF80E001820ADF810000020ADF881
:100AA00012000720ADF8140001A90A4800F0B4FBB9
:100AB0000121084800F0A4FB00200749086001203C
:100AC0000649C1F89C0107B000BD0000000C0140C0
:100AD0000020014000380040A001244200002442D0
:100AE00010B5002011490860052211492A2000F0A4
:100AF000DDF80121212000F0F7F80121222000F08B
:100B0000F3F82821252000F0EFF82021312000F013
:100B1000EBF80F21262000F0E7F80F21202000F04D
:100B2000E3F801200349C1F8A00110BDA00124424F
:100B3000151E0008000024422DE9F04107460D462D
:100B4000164600200A490860384600F02DFB804612
:100B5000002405E0FF2000F027FB2855601CC4B2EC
:100B6000B442F7DB0120024908604046BDE8F0814D
:100B70009C01244270B504460020074908602046C5
:100B800000F012FBFF2000F00FFB05460120034997
:100B9000C1F89C01284670BD9C01244200002442FB
:100BA00070B50446102000F019FB0720FFF7E2FFA4
:100BB00005462946272000F097F805F0400050B17F
:100BC000202221466120FFF7B7FFFF21E22000F03D
:100BD0008BF8002070BD0120FCE7000010B500205C
:100BE0001449086005221449302000F05FF80522FE
:100BF00012492A2000F05AF80121212000F074F84F
:100C00000121222000F070F81A21242000F06CF855
:100C10002821252000F068F80F21262000F064F834
:100C20000E21202000F060F801200549C1F8A00144
:100C300010BD0000A0012442101E0008151E00086F
:100C40000000244270B50546102000F0C7FA0020CD
:100C50001449086020222946A02000F027F801202E
:100C60001149C1F8A00100BF0E488838006800286B
:100C7000FAD10720FFF77EFF04462146272000F027
:100C800033F804F0100028B1FF21E12000F02CF827
:100C9000102070BD04F0200008B12020F9E7FF20EB
:100CA000F7E70000A0012442000024422DE9F041B2
:100CB00007460C46154600200A490860384600F0F1
:100CC00073FA8046002605E014F8010B00F06CFA78
:100CD000701CC6B2AE42F7DB0120024908604046F4
:100CE000BDE8F0819C01244270B505460C46002009
:100CF00007490860284600F057FA0646204600F0EB
:100D000053FA01200349C1F89C01304670BD000030
:100D10009C0124420000244270B5002100230F22D0
:100D2000C47804B3154C246804F4E064C4F5E064AA
:100D3000210AC1F10403CA40447804FA03F184781B
:100D40001440214309010E4C0678A155047804F0A3
:100D50001F050124AC4005786D11AD0005F1E025BB
:100D6000C5F8004109E0047804F01F050124AC40F7
:100D7000044D0678761145F8264070BD0CED00E074
:100D800000E400E080E100E002490143024A116012
:100D9000704700000000FA050CED00E029B1064A9A
:100DA00052690243044B5A6104E0034A5269824388
:100DB000014B5A61704700000010024029B1064AF9
:100DC000D2690243044BDA6104E0034AD2698243E8
:100DD000014BDA61704700000010024029B1064A59
:100DE00092690243044B9A6104E0034A9269824388
:100DF000014B9A61704700000010024030B500219D
:100E00000022002400232D4D6D6805F00C0121B156
:100E1000042905D0082923D105E0294D056022E0E9
:100E2000274D05601FE0254D6D6805F47012234DB8
:100E30006D6805F48034022505EB92421CB9214D02
:100E4000554305600BE01D4D6D6805F400351DB17F
:100E50001C4D5543056002E0194D5543056002E005
:100E6000174D056000BF00BF144D6D6805F0F0011F
:100E70000909154D6B5C0568DD4045600F4D6D68D7
:100E800005F4E061090A104D6B5C4568DD40856042
:100E90000A4D6D6805F46051C90A0B4D6B5C4568DD
:100EA000DD40C560054D6D6805F44041890B074D77
:100EB0006B5CC568B5FBF3F5056130BD0010024001
:100EC00000127A0000093D001000002020000020E0
:100ED00070B50026002400253A4806883604001D17
:100EE000008806443848B6FBF0F438480088A04231
:100EF0003AD036490C8040F2B2750EE02846FFF732
:100F000010FD30B1B4F5B77F02D3A4F5B77402E099
:100F100006E0A4F26D14681C85B2B4F5B67FEDD876
:100F200000BF2B488580002516E029498888FFF7F7
:100F3000F8FC30B1012D04D11D2C01D31D3C09E07A
:100F40000CE02448405DA04203D82248405D241AAA
:100F500000E003E0681C85B21C2CE6D200BF681CD0
:100F60001B498871601CC8711748B6FBF0F100FB83
:100F700011644FF46160B4FBF0F0154908704FF450
:100F80006160B4FBF0F100FB11403C21B0FBF1F0DB
:100F90000F4948704FF46160B4FBF0F100FB114061
:100FA0003C21B0FBF1F201FB1200094988700B46AD
:100FB000DA799979988800F00FF8054908720020CD
:100FC00070BD00001828004080510100480000203A
:100FD0005E000020E01D0008F0B503460C461546F3
:100FE000642093FBF0F0C6B2642093FBF0F700FBA3
:100FF0001730C1B2132E02DD01F16400C1B2084600
:10100000CF1701EB977701EBA707BAB2072092FB46
:10101000F0F700FB172082B25719601EDFF82CC0D2
:101020001CF80000384482B2CF1701EB9777BF104D
:10103000A1EB87071FB9032C01DA501E82B20720EB
:1010400092FBF0F700FB1720C0B2F0BDD41D0008E2
:1010500000B51048008800F0010008B1FFF738FF24
:101060000C48008800F0020028B10A48008820F0EF
:101070000200084908800748008840F6FA710840D5
:101080000449088000BF0348008800F020000028C1
:10109000F9D000BD04280040014988637047000072
:1010A0000080014010B500F011F810BD29B1064ACA
:1010B000D26B0243044BDA6304E0034AD26B8243EF
:1010C000014BDA63704700000080014010B5114801
:1010D000006801280BD100200F49886040F24C4085
:1010E000C8600C20FFF728FA0C49087002E00020C5
:1010F0000A4908704FF48070FFF7CEFF00214FF4CB
:101100008070FFF7D3FF012005490860034800788D
:1011100010BD000034000020008001403800002095
:101120003C00002008B501210820FFF757FE0121EF
:101130008803FFF743FE4FF46040ADF8000018202D
:101140008DF8030003208DF8020069461348FFF76D
:1011500057FB4FF460411148FFF7DFFB00201049B7
:1011600008804FF482704880002088800220C88068
:101170000120088140024881382088810020C881F0
:1011800007200882074800F047F80121054800F0D1
:1011900037F8FF2000F008F808BD0000000C0140FF
:1011A0004C00002000380040014600BF0A4800887B
:1011B00000F002000028F9D00748001D018000BFA0
:1011C0000548008800F001000028F9D00248001D01
:1011D0000088C0B2704700000838004010B50446CF
:1011E000054884810146054800F016F801210348AE
:1011F00000F006F810BD00004C0000200038004050
:1012000021B1028842F04002028004E002884FF6D9
:10121000BF731A400280704710B50022028802F4A2
:1012200041520B884C8823438C882343CC8823432A
:101230000C8923434C8923438C892343CC89234342
:101240001A430280838B4FF2FF74234083830B8AFF
:10125000038210BD704710B500F002F810BD000009
:101260000CB50020019000903348006840F48030B5
:101270003149086000BF3048006800F40030009039
:101280000198401C0190009818B90198B0F5A06F22
:10129000F1D12948006800F4003010B1012000901D
:1012A00001E0002000900098012843D12348006805
:1012B00040F01000214908600846006820F0030053
:1012C00008600846006840F0020008601A4840685C
:1012D000194948600846406848600846406840F43C
:1012E000806048600846406820F47C1048600846EA
:1012F000406840F4E81048600846006840F080709C
:10130000086000BF0C48006800F000700028F9D0A9
:101310000948406820F003000749486008464068D3
:1013200040F00200486000BF0348406800F00C0035
:101330000828F9D10CBD0000001002400020024036
:10134000042808D14FF0E021096941F004014FF071
:10135000E022116107E04FF0E021096921F004016A
:101360004FF0E022116170477047000010B513483C
:10137000006840F0010011490860084640681049C3
:1013800008400E494860084600680E4908400B496D
:1013900008600846006820F480200860084640681D
:1013A00020F4FE0048604FF41F008860FFF753FFF1
:1013B0004FF000600449086010BD000000100240BA
:1013C0000000FFF8FFFFF6FE08ED00E070B50546EF
:1013D00000240021084600F0BBF900F0CEF900BF60
:1013E00003E0284600F0C5F9641C02488442F8D3A3
:1013F00070BD00000077010008B501210802FFF769
:10140000CDFC012140F2E910FFF7E8FC4CF233700B
:10141000ADF8000003208DF8020018208DF80300BD
:1014200069460D48FFF7ECF94FF68070ADF8000003
:1014300069460A48FFF7E4F90120ADF80000694663
:101440000748FFF7DDF94FF48050ADF8000069461A
:101450000448FFF7D5F908BD001401400018014009
:10146000001C01400020014000B59DB00120079004
:10147000002008900F20099000200A900B900C90FB
:101480000D900090019003200290002003900490A2
:101490000590069006200E9000200F9010901020CE
:1014A00011900020129014901390159016904FF404
:1014B00080501790002018904FF480401990002021
:1014C0001A9007A81B90CDF870D00EA8FFF7A4F8CB
:1014D00001210620FFF786F81DB000BD08B50121E7
:1014E0000420FFF77BFC0220ADF8000010208DF8EF
:1014F000030003208DF8020069468D48FFF780F94C
:1015000002218B48FFF709FAFFF776FFFFF7ACFFE0
:10151000322000F033FA0121002000F034F93220AB
:1015200000F02CFA002000F00DF9824908800846EE
:10153000018881A0FEF774FE0021084600F023F91F
:101540000021084600F01FF90021084600F01BF9B1
:101550000021084600F017F90F2000F00FFA40F6BE
:101560000801082000F00FF91021084600F00BF9DF
:101570004FF4C4414FF4806000F005F940F6064195
:101580004FF4407000F0FFF849F60F5140F201307F
:1015900000F0F9F840F6053140F2023000F0F3F8BF
:1015A00041F2172140F2033000F0EDF843F23331FD
:1015B0004FF4417000F0E7F841F2127140F205304B
:1015C00000F0E1F849F20B5140F2063000F0DBF890
:1015D00040F60D7140F2073000F0D5F840F20C6192
:1015E0004FF4427000F0CFF8002140F2093000F0D3
:1015F000CAF840F20221112000F0C5F840F20111B2
:10160000122000F0C0F80121132000F0BCF80121E5
:10161000072000F0B8F84FF4E6614FF4807000F056
:10162000B2F840F2372140F2011000F0ACF84FF46C
:101630002C5140F2031000F0A6F84FF480414FF413
:10164000207000F0A0F848F2B0114FF4817000F063
:101650009AF80F2000F092F94FF48071012000F009
:1016600092F84FF48071022000F08DF841F21801D9
:10167000032000F088F80121092000F084F80021FF
:101680000C2000F080F84FF40041902000F07BF82F
:1016900000210F2000F077F800214FF4047000F0D3
:1016A00072F8EF2140F2112000F06DF8002140F2B5
:1016B000122000F068F840F28F1140F2132000F081
:1016C00062F800214FF4A06000F05DF8002140F2C4
:1016D000015000F058F85F2140F2025000F053F83A
:1016E000012140F2014000F04EF8002140F2044098
:1016F00000F049F80F2000F041F94FF48071072005
:1017000000F041F80F2000F039F900214FF400708B
:1017100000F039F8002140F2012000F034F80220F6
:101720000349103108604FF6FF70FFF74FFE08BD08
:101730000008014028000020205446542049443A23
:1017400025780A0001464FF0D84001804088704754
:1017500010B503460C4621464FF4007000F013F814
:1017600040F28F10C01A81B240F2012000F00BF855
:1017700010BD4FF0D8414880704740F202204FF032
:10178000D841088070474FF0D84210805180704790
:1017900010B50121084800F01EF838B1074801785B
:1017A00007A0FEF73DFD0020044908700121024812
:1017B00000F00EF810BD0000001000404B000020AB
:1017C0006672616D653A25646670730D0A000000EB
:1017D000CA430282704730B502460020002300242D
:1017E000158A05EA0103958905EA010413B10CB1D4
:1017F000012000E0002030BD21B1828942F4005276
:10180000828104E082894DF6FF731A40828170471D
:10181000F0B50346002400260025002040F66A1794
:10182000B94200D100BF1846C1F3421401F01F06AF
:10183000012707FA06F5012C01D10C3004E0022C37
:1018400001D1103000E014301AB107682F4307604F
:1018500002E00768AF430760F0BD00002DE9F047E4
:1018600086B005460E460024A24600BFA1460027CA
:10187000B08900B100BF2F462C8A4CF6FF7004409F
:10188000F08804432C82AC894EF6F3100440B088F3
:1018900031890843718908430443AC81AC8A4FF60F
:1018A000FF400440B0890443AC8201A8FFF7A6FAC8
:1018B0001F48874202D1DDF810A001E0DDF80CA03E
:1018C000A88900F4004040B10AEBCA0000EB0A10FE
:1018D00031684900B0FBF1F807E00AEBCA0000EB01
:1018E0000A1031688900B0FBF1F86420B8FBF0F011
:1018F00004012009642101FB1089A88900F400403B
:1019000040B1322000EBC900B0FBF1F000F007005D
:10191000044308E0322000EB09106421B0FBF1F031
:1019200000F00F0004432C8106B0BDE8F0870000F2
:101930000038014000BFFEE7014600BF70470000CD
:1019400010B504466FF00400FFF7FAFCE11704EB52
:101950005171C1F3C701074A11701046007800EBBE
:101960004001C1EBC0104FF6FF7101EAC00002490F
:10197000088010BD000000200200002001460D4A32
:1019800012884A434FF0E0235A6100229A610122F3
:101990001A6100BF4FF0E022106900F001021AB195
:1019A00000F48032002AF5D000224FF0E0231A61C3
:1019B0009A6170470200002000BF054A128802F0B9
:1019C0004002002AF9D0C2B2014B1B1D1A80704799
:1019D000003801400025A9460027FFF7C7FC482032
:1019E000FFF7AEFF4FF4E13000F0A4F94FF4A06030
:1019F000FFF7CAF9FEF7B2FFFEF782FEFFF76EFDB2
:101A0000FFF700F8FEF7D6FF18B132A0FEF708FC8A
:101A100002E035A0FEF704FC00F086F8374800F03D
:101A2000ABF8044614B936A0FEF7FAFBFFF7D6F878
:101A30002046FFF707F94FF48070354908604FF4EE
:101A40007A70FFF79BFF4FF480703149091F0860DF
:101A50004FF47A70FFF792FFFFF742F839E000BFCA
:101A60002046FFF79DF80028FAD12034002509F11F
:101A70002009B9F5163F2CD3A4F51634814600BFD2
:101A800000261AE0B1B20020FFF762FEFFF775FEF4
:101A90004FF000080DE0675D6D1C4FF6FF7000EA27
:101AA0000727605D07436D1C4FF0D840478008F161
:101AB0000108B8F5A07FEEDB761CF02EE2DBFFF725
:101AC0008DF82046FFF7BEF812A0FEF7A9FBFFF73E
:101AD00007F8C4E74E524632344C3031B2BBB4E65C
:101AE000D4DAA3A10D0A00004E524632344C3031F4
:101AF000B4E6D4DAA3A10D0A0000000005580200E4
:101B0000C9EAC7EBC4DAB4E6CAA7B0DC210D0A0003
:101B100014080140B7A2CBCDCDACB2BDD0C5BAC57B
:101B2000B3C9B9A6210D0A0010B54FF448320021FF
:101B30000E48FEF731FF0D4C4FF448302060002076
:101B40006060207204F54830094908600120096886
:101B500008724FF44830064909680860044909686A
:101B6000486020460349086010BD0000000000687E
:101B7000080000200C0000202DE9F041054615B9B1
:101B80000020BDE8F08105F0030020B105F003005E
:101B9000C0F1040005440C2D01D20020F1E7B5F599
:101BA000483F01D90020ECE74C4800684C49461AF0
:101BB0008EE04B488419207A00284ED106F10C00A3
:101BC0002168091A05F11800814246D306F10C007C
:101BD00000EB0508424800EB08077E60206838608B
:101BE000C4F800803868B0F5483F04D03C493868F4
:101BF0000844C0F804800020387201202072374861
:101C0000006884421CD106E034480068006834490A
:101C100008443249086031480068007A28B12F48EA
:101C20000068304909688842EED12C480068007A83
:101C300008B9012000E0002001462BA0FEF756FC69
:101C400004F0030008B9012000E0002001462DA0A7
:101C5000FEF74CFC04F10C0093E7207A002835D104
:101C600006F10C002168081AA8422FD30120207227
:101C70001A48006884421CD106E0184800680068D1
:101C8000174908441549086014480068007A28B1CB
:101C900012480068134909688842EED10F4800686D
:101CA000007A08B9012000E0002001460EA0FEF7EE
:101CB0001DFC04F0030008B9012000E000200146EB
:101CC00010A0FEF713FC04F10C005AE704488659F3
:101CD000B6F5483FFFF46DAF002052E70C0000203E
:101CE00000000068080000206D656D5F6D616C6C20
:101CF0006F633A20216C667265652D3E757365646D
:101D0000000000006D656D5F6D616C6C6F633A2063
:101D1000616C6C6F6361746564206D656D6F727961
:101D20002070726F7065726C7920616C69676E6586
:101D3000642E000010B586B00446012144F205006F
:101D4000FFF74CF84FF40070ADF8140003208DF845
:101D5000160018208DF8170005A91C48FEF750FD45
:101D60004FF48060ADF8140004208DF8170005A929
:101D70001648FEF745FD25208DF8000003208DF85C
:101D800001008DF8020001208DF803006846FEF77F
:101D9000C3FF01940020ADF80800ADF80A00ADF8CB
:101DA0000C00ADF810000C20ADF80E0001A9084899
:101DB000FFF754FD012240F225510548FFF728FDA9
:101DC00001210348FFF718FD06B010BD00080140CF
:101DD0000038014000030306010406020500030564
:101DE0001F1C1F1E1F1E1F1F1E1F1E1F4A616E4627
:101DF00065624D61724170724D61794A756E4A75C6
:101E00006C4175675365704F63744E6F76446563BC
:101E10003443101001344310100130313233343563
:101E20003637383941424344454640305800303116
:101E30003233343536373839616263646566403031
:101E40007800000030303A34363A34300000000078
:101E50004D61792032352032303234007C1E00084A
:101E6000000000204C0000006C010008C81E0008A3
:101E70004C0000207C0600008801000800000000E3
:101E80000000000000000000000000000000000052
:101E900001020304010203040607080902040608FC
:101EA0000000FFFF00000000000000000000000034
:101EB000000000000000000000000000501E0008AC
:081EC000441E000800000000B0
:0400000508000131BD
:00000001FF
