:020000040800F2
:10000000280700202D020008AF3100087F0B0008F0
:10001000AD31000859070008994E000800000000A3
:10002000000000000000000000000000574400082D
:100030005B07000800000000693F00081945000840
:10004000470200084702000847020008470200086C
:1000500047020008470200085D0700084702000841
:1000600095070008CD0700080508000847020008AA
:10007000470200084702000847020008470200083C
:10008000470200084702000847020008470200082C
:1000900047020008470200084702000881080008DC
:1000A000470200084702000847020008470200080C
:1000B0004702000855460008894600084702000824
:1000C00047020008470200084702000847020008EC
:1000D00047020008FD4C00084702000847020008DC
:1000E00047020008470200084702000847020008CC
:1000F00047020008470200084702000847020008BC
:100100004702000847020008454700084702000868
:100110004702000847020008CD47000847020008D0
:10012000470200084702000847020008470200088B
:1001300000F002F800F06BF80AA090E8000C82448E
:100140008344AAF10107DA4501D100F060F8AFF26B
:10015000090EBAE80F0013F0010F18BFFB1A43F0A5
:100160000103184730810000508100000A444FF01D
:10017000000C10F8013B13F0070408BF10F8014B06
:100180001D1108BF10F8015B641E05D010F8016B4B
:10019000641E01F8016BF9D113F0080F1EBF10F8AF
:1001A000014BAD1C0C1B09D16D1E58BF01F801CBD2
:1001B000FAD505E014F8016B01F8016B6D1EF9D555
:1001C0009142D6D37047000000230024002500266A
:1001D000103A28BF78C1FBD8520728BF30C148BFAA
:1001E0000B607047642900F0B180752900F0AE8083
:1001F000782900F0E780632900F05982732900F024
:100200005E82002070471FB51FBD10B510BD00F005
:1002100071FA1146FFF7F7FF04F0A6FE00F08FFA1F
:1002200003B4FFF7F2FF03BC04F03EFE0948804729
:1002300009480047FEE7FEE7FEE7FEE7FEE7FEE7C8
:10024000FEE7FEE7FEE7FEE704480549034A054BE3
:10025000704700001D4500083101000828030020F8
:100260002807002028030020704700000FB404492D
:1002700010B503AA029800F027FA10BC5DF814FB31
:10028000640000200FB41CB5074B06AA7B446946E6
:100290000090059800F0E9F90020694600F0F8F9AF
:1002A0001CBC5DF814FB00000104000070B504469E
:1002B00085690068C10601D5302600E02026C00708
:1002C00007D070BDD4E9012130469047206A401C18
:1002D00020626D1EF6D570BD70B504468569007844
:1002E000C00707D170BDD4E9012120209047206AC2
:1002F000401C20626D1EF6D570BD70B50C460546DB
:10030000012A05D02878800600D5EA69002302E09A
:10031000012305E05B1C934202D2E05C0028F9D186
:10032000A869E618C01AA861286A184428622846F5
:10033000FFF7BCFF04E0D5E9012114F8010B904759
:10034000B442F8D32846FFF7C7FF70BD2DE9F0414E
:100350000646002410687529314616A510D0AFF363
:100360000080002802DA404213A507E031688A07BE
:1003700001D512A502E0490704D511A5012401E029
:10038000AFF3008000210A2206F1240709E0B0FB48
:10039000F2FCB0FBF2F302FB1C003030785418463C
:1003A000491C0028F3D123462A463046BDE8F041D7
:1003B00000F0FCB8000000002D0000002B00000041
:1003C0002000000070B504460D4621461068AFF3CA
:1003D00000802188090502D50F4A7A4402E00E4ABE
:1003E0007A440E32002104F1240305E000F00F06E8
:1003F0000009965D5E54491C0028F7D1207800233F
:10040000000704D5702D02D009B102231132204615
:10041000BDE8704000F0CAB8CE7C00002DE9F05F66
:10042000894604464FF0000ADFF874B1FB44C0F877
:1004300020A02046E1688847002874D0252806D0EF
:10044000D4E901219047206A401C2062F1E7002690
:100450005F462046E16888472028054607DB312DA6
:1004600005D2781910F8200C08B10643F1E7B0075F
:1004700001D526F00406C4F81CA00027C4F818A073
:100480002A2D09D0284604F008FD38B304EB87086C
:10049000303DC8F8185019E059F8041B204604EB09
:1004A00087029161E1688847012F054618D1E0690C
:1004B000002820DA26F020061DE0D8F8180000EB0E
:1004C000800005EB40003038C8F818002046E1688D
:1004D0008847054604F0E1FC0028EED1012F0AD040
:1004E0002E2D08D12046E16888477F1C0546022F43
:1004F00046F02006C4DBA069002803DA404246F03B
:100500000106A061F00701D026F010066C2D0BD07B
:10051000682D09D04C2D39D06A2D35D0742D35D0A9
:100520007A2D33D016E038E0E1682F462046884720
:10053000B842054609D16C2F26D04FF48060E1689F
:10054000064320468847054604E06C2F1AD04FF436
:10055000807006430DB3A5F14100192802D820355B
:1005600046F400664A462946204626604E46FFF776
:1005700039FE80B101280BD0F61D26F0070000F1EE
:10058000080956E74020E4E78020D8E70020D6E7B6
:1005900006F104094DE7284652E7206ABDE8F09FBE
:1005A000A47C000070477047704770472DE9F04702
:1005B0000D4699469246044600F1240801688806D3
:1005C00004D5E06921F01001216000E00120A8427B
:1005D00001DD471B00E00027A1697A1902EB090041
:1005E000081AA0612078C00602D42046FFF75EFEFC
:1005F000002608E0D4E901211AF806009047206A95
:10060000401C761C20624E45F4DB2078C0060AD5DB
:100610002046FFF74BFE06E0D4E901213020904749
:10062000206A401C2062381EA7F10107F4DC07E0B5
:10063000D4E9012118F805009047206A401C206287
:10064000281EA5F10105F3DC2046FFF745FE2078C2
:10065000000602D50220BDE8F0870120FBE700007C
:1006600001694A1C02610878704700B58FB0CDE976
:1006700001310021059105497944CDE90310114666
:100680006846FFF7CBFE0FB000BD0000E5FFFFFF9F
:100690000A6802F8010B0A60704710B5436913B18C
:1006A000AFF3008001E0FFF728FE012010BD1278B3
:1006B00000F124010A7000224A700122EDE711685E
:1006C0004FF0FF32E9E70000074B70B50D467B4461
:1006D000FFF7CBFF0446284600F008F810B14FF0B2
:1006E000FF3070BD204670BD7F480000007B00F0E9
:1006F00080007047754600F02BF8AE46050069464D
:10070000534620F00700854618B020B5FFF79CFD42
:10071000BDE820404FF000064FF000074FF0000802
:100720004FF0000B21F00701AC46ACE8C009ACE883
:10073000C009ACE8C009ACE8C0098D46704710B5E7
:100740000446AFF300802046BDE81040FFF768BDC7
:1007500000487047C4020020FEE7704710B50A2029
:1007600004F0C2FB0121094800F0FEF9012806D17E
:100770000749D1F8A00138B10020C1F8A001BDE8B7
:100780001040012000F0A0B80120F6E70008014069
:100790000080214210B50A2004F0A6FB042109487C
:1007A00000F0E2F930B90849D1F8940138B10020DD
:1007B000C1F89401BDE81040042000F085B8012084
:1007C000F6E70000001801400080214210B50A2021
:1007D00004F08AFB0821094800F0C6F930B908493D
:1007E000D1F8940138B10020C1F89401BDE810405F
:1007F000082000F069B80120F6E700000018014069
:100800000000234210B50A2004F06EFB10210948B5
:1008100000F0AAF930B90849D1F8940138B10020A4
:10082000C1F89401BDE81040102000F04DB801203F
:10083000F6E7000000180140008021423EB5082183
:10084000002000F003F94FF48070002400908DF830
:10085000044008208DF8050001258DF806506846F3
:1008600000F048F817208DF808008DF809408DF841
:100870000A408DF80B5002A802F036FE3EBD000083
:1008800010B54FF48074204600F024F8012806D1FA
:100890000A4B0B4A0021187830B1C2F88C1120465F
:1008A000BDE8104000F010B80648C0F898110121CA
:1008B000C0F89811C2F88C111970F0E756000020AA
:1008C00000802142008022420149086070470000F8
:1008D00014040140064A014600201268044B0A40F5
:1008E00014331B680B4202D0002A00D0012070474D
:1008F0000004014030B51A4A8379016853B3136884
:100900008B431360111D0B680468A3430B600179CE
:1009100011440B68046823430B60114B08331968BA
:100920000468A14319601C1D21680568A943216062
:100930004179102905D011440A68006802430A6011
:1009400030BD1968026811431960216800680143CD
:10095000216030BD0079104402688A43026030BDD6
:10096000000401408000A0F1C0400029016802D0CD
:1009700041F0010101E0024A1140016070470000AE
:10098000FEFF0F0010B5D0E901121143D0E9032397
:100990001A4311434269114382691143C2691143E9
:1009A000026A1143426A1143826A1143C26A1143C7
:1009B000026B114302689200A2F1C042116081688B
:1009C000082907D101688900A1F1C0410A6842F0F5
:1009D00040020A60416BD1E9002342EA03128B68AE
:1009E0008C891B0243EA04431A430B8A42EA0352EE
:1009F0000B7D896942EA03620A4301688900A1F11B
:100A0000C0414A60C16AB1F5804F08D000686FF0FC
:100A100070418000A0F1C040C0F8041110BD816B8E
:100A2000D1E9002342EA03128B680C8A1B0243EAD5
:100A300004531A430B7D896942EA036200680A4342
:100A40008000A0F1C040C0F8042110BD10B58A0795
:100A500021F003040649120F21440F238C689340B0
:100A60009C438C608B68904003438B6010BD0000FA
:100A700000000140F0B5CC78002204F00F03E4063A
:100A800001D58C7823430C784FF00F0C14F0FF0F36
:100A90004FF0010E1BD005680E880EFA02F42640B6
:100AA000A64210D196000CFA06F725EA070703FACA
:100AB00006F5CE783D43282E02D0482E02D002E023
:100AC000446100E00461521C082AE5D305600A88ED
:100AD000FF2A1CD94468002202F108060EFA06F526
:100AE0000E882E40AE420ED196000CFA06F7BC439B
:100AF00003FA06F7CE783C43282E00D14561CE7824
:100B0000482E00D10561521C082AE5D34460F0BD8F
:100B1000F0B5144C002801DAE36900E06368450D84
:100B20002E0185B2C0F30157B540C0F30342032F35
:100B300005D0C6020AD503269640B34307E023F04A
:100B40007062636823F07063636002E0AB4343F05C
:100B5000706201B12A43002801DAE261F0BD6260EF
:100B6000F0BD0000000001400246002092680A42E9
:100B700000D0012070474161704701617047FEE776
:100B800008B50121442003F009FA1C20ADF800004B
:100B900048208DF8030069460648FFF76BFF0120E7
:100BA000ADF8000028208DF8030069460248FFF7E1
:100BB00061FF08BD00180140000801402DE9F04127
:100BC0002E4C2F4F2F4D012608B1267001E02078C2
:100BD000A0B110212846FFF7C7FFB0B10821284671
:100BE000FFF7C2FF88B104212846FFF7BDFF60B1BF
:100BF00001213846FFF7B8FF012806D0102128460A
:100C0000FFF7B2FF012824D035E00A2004F06CF988
:100C10000020207010212846FFF7A6FF80B1082190
:100C20002846FFF7A1FF70B104212846FFF79CFF7B
:100C300058B101213846FFF797FF012807D01AE085
:100C40000120BDE8F0810220FBE70320F9E7042042
:100C5000F7E708212846FFF787FF01280BD1042179
:100C60002846FFF781FF012805D101213846FFF70B
:100C70007BFF00B926700020E3E700004C00002055
:100C8000000801400018014070B5094906460024DB
:100C900008884D8821464543204602F0CBF802F0F3
:100CA0004BFA044801E00680641CAC42FBD370BDE3
:100CB000EE0100200008006C2DE9F04F2B4B2C2793
:100CC000194698712B2589884FF4305A4FF4285BC8
:100CD0004FF4487441F6631E2A264FF0F00845F29F
:100CE00010594FF4A07C4FF4F072C8B1A3F800C0C3
:100CF000A3F80280494533D1A3F808A0A3F80AB0AD
:100D0000280298811C805A80A1F5A640103802D193
:100D10001A80A3F802C0BDE8F04F002001F0E8BF40
:100D2000A3F80080A3F802C0494507D1A3F808A0A2
:100D3000A3F80AB04FF42C50988104E071451F814C
:100D400004D15D819E811A805C8001E05E819D817D
:100D5000A1F5A6401038DED1A3F800C05A80DAE72A
:100D60001F815E8171459D81CCD0CDE7EE010020D1
:100D70002DE9F047DFF89C9092464A46B9F80460A6
:100D8000DFF894C093890C0A050A5289A6F5A04899
:100D90000CF10207B8F5A2680CD0A6F5C858B8F156
:100DA000630816D0ACF800203D80C0B23880ACF8A3
:100DB000003024E0ACF800203D80521CACF800204C
:100DC000C0B23880ACF800303C805B1CACF800301E
:100DD00016E099F8066026B9B9F80050281A401EA6
:100DE00080B2ACF80020020A3A80C5B23D803A8059
:100DF000C0B23880ACF800303C80C8B238803C804B
:100E0000C8B23880B9F80800ACF80000A7F800A014
:100E1000BDE8F087EE010020FE07006C2DE9F043ED
:100E20008146A2EB0900401C1F460C4685B2DFF844
:100E30003080079E0FE02146484601F0FBFF02F09C
:100E40007BF90020414602E00E80401C80B2A8429F
:100E5000FAD3641CA4B2BC42EDD9BDE8F083000013
:100E60000008006C2DE9F04F01219FB0080203F04B
:100E70007DF801214FF4B47003F090F80120ADF833
:100E80003C0010208DF83F0003248DF83E400FA950
:100E9000FE48FFF7EFFD4CF23370ADF83C0018252B
:100EA0008DF83F508DF83E400FA9F948FFF7E2FD5D
:100EB0004FF68070ADF83C008DF83F508DF83E4005
:100EC0000FA9F448FFF7D6FD41F20100ADF83C0050
:100ED0008DF83F508DF83E400FA9EF48FFF7CAFD4F
:100EE0000120179000200F21CDE918011A901B90C6
:100EF0001C901D901090CDE91104149015900621BE
:100F0000CDE9001016901021CDE902011390049054
:100F10000902CDE908010690059007908900CDE906
:100F20000A010C9017A80D9010A80E906846FFF7C4
:100F300029FD01210620FFF715FD322003F0D4FF23
:100F4000D64CD320208001F0ABFED54DA88001F017
:100F5000A7FE2946888001F0A3FE4FF6FF772946B9
:100F600007EA0020888001F09BFE294649F2413AB9
:100F7000898847F289760843294645F210388880E7
:100F800045F2105941F6631B504572D00420208071
:100F900001F086FEA88001F083FEA88001F080FEAB
:100FA00007EA0020A88001F07BFEA9880843A0F58D
:100FB0000541A880523958D0B0425AD0D420208060
:100FC00001F06EFEA88001F06BFEA88001F068FEC3
:100FD00007EA0020A88001F063FEA9880843A880E2
:100FE000404546D055214FF4704002F0AFF8AA2199
:100FF0004FF2010002F0AAF852214FF2020002F073
:10100000A5F808214FF2030002F0A0F801214FF2E9
:10101000040002F09BF84FF44540208001F040FEB0
:1010200007EA0020A8804CF20150208001F038FE31
:10103000A9880843A880052003F056FFA9884945E0
:1010400017D0A120208001F02BFEA88001F028FEFF
:1010500007EA0020A88001F023FEA9880843A0F534
:10106000AE41A880613902D003E0AE8001E0A5F86E
:1010700004B0A9888BA0FFF7F9F8A888874DAD1CAC
:1010800050457DD1CF20208000202880C12028809D
:1010900030202880ED2020806420288003202880B4
:1010A0001220288081202880E82020808520288028
:1010B000102028807A202880CB202080392028808A
:1010C0002C2028800020288034202880022028809E
:1010D000F720208020202880EA20208000202880FF
:1010E0002880C02020801B202880C1202080012053
:1010F0002880C5202080302028802880C72020809C
:10110000B720288036202080482028803A20208060
:1011100055202880B1202080002028801A20288097
:10112000B62020800A202880A2202880F22020805B
:10113000002028802620208001202880E020208098
:101140000F2028802A202880282028800820288016
:101150000E2028800820288054202880A92028805C
:10116000432028800A2028800F2028800020288003
:10117000288028802880E12020800020288000E02E
:1011800031E0152028801720288007202880112092
:101190002880062028802B202880562028803C206C
:1011A000288005202880102028800F2028803F20BC
:1011B000288028800F2028802B2020800020288055
:1011C0002880012028803F2028802A20208000209D
:1011D000288028802880EF202880112020807820F7
:1011E00003F082FE9EE0B0427ED111202080782064
:1011F00003F07AFE36202080002028803A202080CC
:1012000005202880B22020800C2028802880002003
:101210002880332028802880B7202080352028800F
:10122000BB20208032202880C02020800C202880F5
:10123000C220208001202880C32020801020288008
:10124000C420208020202880C62020800F202880D5
:10125000D0202080A4202880A1202880E020208089
:10126000D020288000202880022028800720288085
:101270000A202880282028803220288044202880A6
:1012800042202880062028800E2013E0000C014018
:10129000001401400018014000200140FE07006CCE
:1012A000EE010020204C43442049443A25780D0AA1
:1012B0000000000028801220288014202880172099
:1012C0002880E1202080D020288000202880022053
:1012D0002880072028800A20288028202880312084
:1012E00028805420288000E01FE0472028800E201E
:1012F00028801C202880172028801B2028801E2062
:1013000028802A2020800020288028802880EF2024
:1013100028802B2020800020288028800120288001
:101320003F202880292001F02EBC40457ED1ED20B1
:10133000208001202880FE202880EE202080DE20D2
:10134000288021202880F120208001202880DF2093
:10135000208010202880C42020808F202880C62054
:10136000208000202880E220288028802880BF203C
:101370002080AA202880B02020800D2028800020F6
:1013800028800D202880002028801120288000201F
:1013900028801920288000202880212028800020F3
:1013A00028802D202880002028803D2028800020B3
:1013B00028805D202880002028805D202880002053
:1013C0002880B120208080202880002028808B2049
:1013D0002880002028809620288000202880B220A5
:1013E000208000202880288002202880002028805B
:1013F0000320288000202880B3202080002028801F
:10140000288028802880288028802880288028809C
:10141000288028802880288028802880288028808C
:101420002880288028802880288000E0FEE328800B
:101430002880B42020808B202880002028809620BF
:10144000288000202880A120288000202880B52026
:10145000208002202880002028800320288000206F
:1014600028800420288000202880B62020800020AA
:1014700028802880B72020800020288028803F20D6
:101480002880002028805E2028800020288064207A
:101490002880002028808C20288000202880AC20F4
:1014A000288000202880DC202880002028807020D0
:1014B0002880002028809020288000202880EB2091
:1014C000288000202880DC20288000202880B82068
:1014D000208000202880288028802880288028805C
:1014E00028802880BA20208024202880002028807E
:1014F00028802880C120208020202880002028806B
:101500005420288000202880FF2028800020288068
:10151000C22020800A2028800020288004202880E3
:1015200000202880C32020803C20288000202880A4
:101530003A20288000202880392028800020288018
:1015400037202880002028803C2028800020288008
:101550003620288000202880322028800020288003
:101560002F202880002028802C2028800020288000
:1015700029202880002028802620288000202880FC
:1015800024202880002028802420288000202880F3
:1015900023202880002028803C20288000202880CC
:1015A00036202880002028803220288000202880B3
:1015B0002F202880002028802C20288000202880B0
:1015C00029202880002028802620288000202880AC
:1015D00024202880002028802420288000202880A3
:1015E0002320288000202880C4202080622028809A
:1015F0000020288005202880002028808420288042
:1016000000202880F02028800020288018202880B2
:1016100000202880A42028800020288018202880EE
:101620000020288050202880002028800C2028803E
:1016300000202880172028800020288095202880DE
:1016400000202880F320288000202880E6202880A1
:1016500000202880C520208032202880002028807B
:1016600044202880002028806520288000202880B1
:10167000762028800020288088202880002028804C
:10168000C620208020202880002028801720288045
:10169000002028800120288000202880C72020806A
:1016A00000202880288028802880C82020800020D2
:1016B0002880288028802880C92020800020288039
:1016C00028802880288028802880288028802880DA
:1016D0002880288028802880288028802880E02072
:1016E000208016202880002028801C2028800020B0
:1016F0002880212028800020288036202880002073
:101700002880462028800020288052202880002021
:10171000288064202880002028807A2028800020CB
:1017200028808B2028800020288099202880002075
:101730002880A820288000202880B9202880002028
:101740002880C420288000202880CA2028800020EB
:101750002880D220288000202880D92028800020BE
:101760002880E020288000202880F3202880002086
:101770002880E120208016202880002028801C203E
:1017800028800020288022202880002028803620E1
:101790002880002028804520288000202880522092
:1017A00028800020288064202880002028807A203B
:1017B0002880002028808B202880002028809920E5
:1017C000288000202880A820288000202880B92098
:1017D000288000202880C420288000202880CA205B
:1017E000288000202880D220288000202880D8202F
:1017F000288000202880E020288000202880F320F6
:10180000288000202880E2202080052028800020D9
:1018100028800B202880002028801B202880002082
:101820002880342028800020288044202880002020
:1018300028804F20288000202880612028800020D8
:101840002880792028800020288088202880002077
:1018500028809720288000202880A620288000202B
:101860002880B720288000202880C22028800020DF
:101870002880C720288000202880D12028800020B0
:101880002880D620288000202880DD202880002085
:101890002880F320288000202880E3202080052055
:1018A0002880002028800A202880002028801C20F2
:1018B0002880002028803320288000202880442091
:1018C0002880002028805020288000202880622046
:1018D00028800020288078202880002028808820E8
:1018E0002880002028809720288000202880A6209B
:1018F000288000202880B720288000202880C2204F
:10190000288000202880C720288000202880D1201F
:10191000288000202880D520288000202880DD20F5
:10192000288000202880F320288000202880E420C0
:10193000208001202880002028800120288000208D
:10194000288002202880002028802A20288000204B
:1019500028803C202880002028804B2028800020E0
:1019600028805D2028800020288074202880002086
:101970002880842028800020288093202880002030
:101980002880A220288000202880B32028800020E2
:101990002880BE20288000202880C42028800020A5
:1019A0002880CD20288000202880D3202880002077
:1019B0002880DD20288000202880F3202880002037
:1019C0002880E5202080002028802880288028800A
:1019D00002202880002028802920288000202880BC
:1019E0003C202880002028804B2028800020288050
:1019F0005D202880002028807420288000202880F6
:101A0000842028800020288093202880002028809F
:101A1000A220288000202880B32028800020288051
:101A2000BE20288000202880C42028800020288014
:101A3000CD20288000202880D320288000202880E6
:101A4000DC20288000202880F320288000202880A7
:101A5000E620208011202880002028803420288043
:101A6000002028805620288000202880762028808A
:101A70000020288077202880002028806620288069
:101A80000020288088202880002028809920288015
:101A900000202880BB2028800020288099202880D2
:101AA000002028806620288000202880552028805B
:101AB000002028805520288000202880452028806C
:101AC000002028804320288000202880442028806F
:101AD00000202880E72020803220288000202880D5
:101AE000552028800020288076202880002028800B
:101AF00066202880002028806720288000202880F9
:101B000067202880002028808720288000202880C7
:101B10009920288000202880BB2028800020288051
:101B20009920288000202880772028800020288085
:101B300044202880002028805620288000202880EB
:101B4000232028800020288033202880002028801F
:101B50004520288000202880E82020800020288040
:101B60002880992028800020288087202880002035
:101B70002880882028800020288077202880002046
:101B80002880662028800020288088202880002047
:101B90002880AA20288000202880BB2028800020C0
:101BA0002880992028800020288066202880002016
:101BB000288055202880002028805520288000205B
:101BC000288044202880002028804420288000206D
:101BD00028805520288000202880E9202080AA2005
:101BE000288000202880288028802080AA20288023
:101BF000CF202080002028802880288028802880EE
:101C00002880288028802880288028802880288094
:101C10002880288028802880F020208000202880AC
:101C20005020288000202880288000E02BE0288099
:101C3000F320208000202880F920208006202880A2
:101C40001020288029202880002028803A20208009
:101C50005520288011202080642003F045F9292098
:101C60002080352020800020288051202080FF20E7
:101C70002880532020802C202880552020808220FE
:101C800028802C20FDE348457ED14FF47049552132
:101C9000484601F05BFA4FF20108AA21404601F0E4
:101CA00055FA4FF202035221184601F04FFA4FF253
:101CB00003050821284601F049FA6E1C012130462F
:101CC00001F044FA0D214FF4304001F03FFA0D21AC
:101CD0004BF2010001F03AFA0D214BF2020001F043
:101CE00035FA4FF4364A3421504601F02FFA3421A8
:101CF0004BF2016001F02AFA34214BF2026001F04C
:101D000025FA4FF4314B0D21584601F01FFA0D21F1
:101D10004BF2011001F01AFA0D214BF2021001F002
:101D200015FA34214FF4374001F010FA34214BF208
:101D3000017001F00BFA34214BF2027001F006FA47
:101D400000214FF4324001F001FA00214BF2012052
:101D500001F0FCF900214BF2022001F0F7F92421F7
:101D60004FF4384001F0F2F924214BF6010001F064
:101D7000EDF924214BF6020001F0E8F901214FF4BE
:101D80003F4001F0E3F900E0FEE30F214FF4334060
:101D900001F0DCF90F214BF2013001F0D7F90F21EE
:101DA0004BF2023001F0D2F934214FF4394001F006
:101DB000CDF934214BF6011001F0C8F934214BF66E
:101DC000021001F0C3F908214FF4354001F0BEF9CB
:101DD00008214BF2015001F0B9F908214BF20250F1
:101DE00001F0B4F903214FF4424001F0AFF924218E
:101DF0004FF43A4001F0AAF924214BF6012001F0FA
:101E0000A5F924214BF6022001F0A0F900214FF49E
:101E10003C4001F09BF978214BF6014001F096F926
:101E200000214BF6024001F091F900214FF43D40B2
:101E300001F08CF978214BF6015001F087F900216F
:101E40004BF6025001F082F900214FF43E4001F0C0
:101E50007DF964214BF6016001F078F900214FF41F
:101E6000514001F073F933214DF2011001F06EF988
:101E700000214DF2021001F069F934214DF20310F6
:101E800001F064F900214DF2041001F05FF93A21EC
:101E90004DF2051001F05AF900214DF2061001F043
:101EA00055F94A214DF2071001F050F900214DF289
:101EB000081001F04BF95C214DF2091001F046F9D0
:101EC00000214DF20A1001F041F981214DF20B1071
:101ED00001F03CF900214DF20C1001F037F9A62178
:101EE0004DF20D1001F032F900214DF20E1001F00B
:101EF0002DF9E5214DF20F1001F028F901214DF2E5
:101F0000101001F023F913214DF2111001F01EF908
:101F100001214DF2121001F019F954214DF2131064
:101F200001F014F901214DF2141001F00FF9822192
:101F30004DF2151001F00AF901214DF2161001F0D1
:101F400005F9CA214DF2171001F000F902214DF2F6
:101F5000181001F0FBF800214DF2191001F0F6F80D
:101F600002214DF21A1001F0F1F801214DF21B107F
:101F700001F0ECF802214DF21C1001F0E7F83421D9
:101F80004DF21D1001F0E2F802214DF21E1001F099
:101F9000DDF867214DF21F1001F0D8F802214DF253
:101FA000201001F0D3F884214DF2211001F0CEF879
:101FB00002214DF2221001F0C9F8A4214DF22310A4
:101FC00001F0C4F802214DF2241001F0BFF8B7214E
:101FD0004DF2251001F0BAF802214DF2261001F061
:101FE000B5F8CF214DF2271001F0B0F802214DF2E3
:101FF000281001F0ABF8DE214DF2291001F0A6F80F
:1020000002214DF22A1001F0A1F8F2214DF22B101D
:1020100001F09CF802214DF22C1001F097F8FE21FE
:102020004DF22D1001F092F803214DF22E1001F027
:102030008DF810214DF22F1001F088F803214DF298
:10204000301001F083F833214DF2311001F07EF8A9
:1020500003214DF2321001F079F86D214DF2331069
:1020600001F074F800214FF4524001F06FF8332171
:102070004DF2012001F06AF800214DF2022001F03A
:1020800065F834214DF2032001F060F800214DF293
:10209000042001F05BF83A214DF2052001F056F8DA
:1020A00000214DF2062001F051F84A214DF207209F
:1020B00001F04CF800214DF2082001F047F85C21B6
:1020C0004DF2092001F042F800214DF20A2001F002
:1020D0003DF881214DF20B2001F038F800214DF23E
:1020E0000C2001F033F8A6214DF20D2001F02EF85E
:1020F00000214DF20E2001F029F8E5214DF20F20CC
:1021000001F024F801214DF2102001F01FF81321F5
:102110004DF2112001F01AF801214DF2122001F0C8
:1021200015F854214DF2132001F010F801214DF261
:10213000142001F00BF882214DF2152001F006F871
:1021400001214DF2162001F001F8CA214DF21720AD
:1021500000F0FCFF02214DF2182000F0F7FF0021F3
:102160004DF2192000F0F2FF02214DF21A2000F08A
:10217000EDFF01214DF21B2000F0E8FF02214DF29E
:102180001C2000F0E3FF34214DF21D2000F0DEFFA3
:1021900002214DF21E2000F0D9FF67214DF21F20D1
:1021A00000F0D4FF02214DF2202000F0CFFF842167
:1021B0004DF2212000F0CAFF02214DF2222000F052
:1021C000C5FFA4214DF2232000F0C0FF02214DF2F3
:1021D000242000F0BBFFB7214DF2252000F0B6FF10
:1021E00002214DF2262000F0B1FFCF214DF2272031
:1021F00000F0ACFF02214DF2282000F0A7FFDE2105
:102200004DF2292000F0A2FF02214DF22A2000F019
:102210009DFFF2214DF22B2000F098FF02214DF29C
:102220002C2000F093FFFE214DF22D2000F08EFFB8
:1022300003214DF22E2000F089FF10214DF22F20B6
:1022400000F084FF03214DF2302000F07FFF3321A6
:102250004DF2312000F07AFF03214DF2322000F0E0
:1022600075FF6D214DF2332000F070FF00214FF417
:10227000534000F06BFF33214DF2013000F066FF58
:1022800000214DF2023000F061FF34214DF20330A5
:1022900000F05CFF00214DF2043000F057FF3A21BE
:1022A0004DF2053000F052FF00214DF2063000F0F3
:1022B0004DFF4A214DF2073000F048FF00214DF25A
:1022C000083000F043FF5C214DF2093000F03EFF82
:1022D00000214DF20A3000F039FF81214DF20B3020
:1022E00000F034FF00214DF20C3000F02FFFA6214A
:1022F0004DF20D3000F02AFF00214DF20E3000F0BB
:1023000025FFE5214DF20F3000F020FF01214DF2B5
:10231000103000F01BFF13214DF2113000F016FFBA
:1023200001214DF2123000F011FF54214DF2133013
:1023300000F00CFF01214DF2143000F007FF822164
:102340004DF2153000F002FF01214DF2163000F081
:10235000FDFECA214DF2173000F0F8FE02214DF2C9
:10236000183000F0F3FE00214DF2193000F0EEFEBF
:1023700002214DF21A3000F0E9FE01214DF21B302E
:1023800000F0E4FE02214DF21C3000F0DFFE3421AB
:102390004DF21D3000F0DAFE02214DF21E3000F049
:1023A000D5FE67214DF21F3000F0D0FE02214DF224
:1023B000203000F0CBFE84214DF2213000F0C6FE2B
:1023C00002214DF2223000F0C1FEA4214DF2233053
:1023D00000F0BCFE02214DF2243000F0B7FEB72120
:1023E0004DF2253000F0B2FE02214DF2263000F011
:1023F000ADFECF214DF2273000F0A8FE02214DF2B4
:10240000283000F0A3FEDE214DF2293000F09EFEC0
:1024100002214DF22A3000F099FEF2214DF22B30CC
:1024200000F094FE02214DF22C3000F08FFEFE21D0
:102430004DF22D3000F08AFE03214DF22E3000F0D7
:1024400085FE10214DF22F3000F080FE03214DF269
:10245000303000F07BFE33214DF2313000F076FE5B
:1024600003214DF2323000F071FE6D214DF2333018
:1024700000F06CFE00214FF4544000F067FE332161
:1024800000E080E34DF2014000F060FE00214DF2DB
:10249000024000F05BFE34214DF2034000F056FE96
:1024A00000214DF2044000F051FE3A214DF205406A
:1024B00000F04CFE00214DF2064000F047FE4A219C
:1024C0004DF2074000F042FE00214DF2084000F0BE
:1024D0003DFE5C214DF2094000F038FE00214DF236
:1024E0000A4000F033FE81214DF20B4000F02EFE39
:1024F00000214DF20C4000F029FEA6214DF20D40C6
:1025000000F024FE00214DF20E4000F01FFEE521F8
:102510004DF20F4000F01AFE01214DF2104000F084
:1025200015FE13214DF2114000F010FE01214DF275
:10253000124000F00BFE54214DF2134000F006FE55
:1025400001214DF2144000F001FE82214DF21540B0
:1025500000F0FCFD01214DF2164000F0F7FDCA210C
:102560004DF2174000F0F2FD02214DF2184000F04C
:10257000EDFD00214DF2194000F0E8FD02214DF281
:102580001A4000F0E3FD00E0FFE201214DF21B40A4
:1025900000F0DCFD02214DF21C4000F0D7FD34219B
:1025A0004DF21D4000F0D2FD02214DF21E4000F020
:1025B000CDFD67214DF21F4000F0C8FD02214DF214
:1025C000204000F0C3FD84214DF2214000F0BEFD0B
:1025D00002214DF2224000F0B9FDA4214DF223402A
:1025E00000F0B4FD02214DF2244000F0AFFDB72110
:1025F0004DF2254000F0AAFD02214DF2264000F0E8
:10260000A5FDCF214DF2274000F0A0FD02214DF2A3
:10261000284000F09BFDDE214DF2294000F096FDA0
:1026200002214DF22A4000F091FDF2214DF22B40A3
:1026300000F08CFD02214DF22C4000F087FDFE21C0
:102640004DF22D4000F082FD03214DF22E4000F0AE
:102650007DFD10214DF22F4000F078FD03214DF259
:10266000304000F073FD33214DF2314000F06EFD3B
:1026700003214DF2324000F069FD6D214DF23340EF
:1026800000F064FD00214FF4554000F05FFD332160
:102690004DF2015000F05AFD00214DF2025000F0C1
:1026A00055FD34214DF2035000F050FD00214DF254
:1026B000045000F04BFD3A214DF2055000F046FD6C
:1026C00000214DF2065000F041FD4A214DF2075025
:1026D00000F03CFD00214DF2085000F037FD5C2178
:1026E0004DF2095000F032FD00214DF20A5000F089
:1026F0002DFD81214DF20B5000F028FD00214DF2FF
:102700000C5000F023FDA6214DF20D5000F01EFDEF
:1027100000214DF20E5000F019FDE5214DF20F5051
:1027200000F014FD01214DF2105000F00FFD1321B7
:102730004DF2115000F00AFD01214DF2125000F04F
:1027400005FD54214DF2135000F000FD01214DF222
:10275000145000F0FBFC82214DF2155000F0F6FC05
:1027600001214DF2165000F0F1FCCA214DF2175034
:1027700000F0ECFC02214DF2185000F0E7FC0021C3
:102780004DF2195000F0E2FC02214DF21A5000F017
:10279000DDFC01214DF21B5000F0D8FC02214DF26E
:1027A0001C5000F0D3FC34214DF21D5000F0CEFC43
:1027B00002214DF21E5000F0C9FC67214DF21F505E
:1027C00000F0C4FC02214DF2205000F0BFFC842137
:1027D0004DF2215000F0BAFC02214DF2225000F0DF
:1027E000B5FCA4214DF2235000F0B0FC02214DF2C3
:1027F000245000F0ABFCB7214DF2255000F0A6FCB0
:1028000002214DF2265000F0A1FCCF214DF22750BD
:1028100000F09CFC02214DF2285000F097FCDE21D4
:102820004DF2295000F092FC02214DF22A5000F0A6
:102830008DFCF2214DF22B5000F088FC02214DF26C
:102840002C5000F083FCFE214DF22D5000F07EFC58
:1028500003214DF22E5000F079FC10214DF22F5043
:1028600000F074FC03214DF2305000F06FFC332176
:102870004DF2315000F06AFC03214DF2325000F06D
:1028800065FC6D214DF2335000F060FC00214FF4E7
:10289000564000F05BFC33214DF2016000F056FC25
:1028A00000214DF2026000F051FC34214DF2036032
:1028B00000F04CFC00214DF2046000F047FC3A218E
:1028C0004DF2056000F042FC00214DF2066000F080
:1028D0003DFC4A214DF2076000F038FC00214DF22A
:1028E000086000F033FC5C214DF2096000F02EFC22
:1028F00000214DF20A6000F029FC81214DF20B60AD
:1029000000F024FC00214DF20C6000F01FFCA62119
:102910004DF20D6000F01AFC00214DF20E6000F047
:1029200015FCE5214DF20F6000F010FC01214DF285
:10293000106000F00BFC13214DF2116000F006FC5A
:1029400001214DF2126000F001FC54214DF21360A0
:1029500000F0FCFB01214DF2146000F0F7FB822136
:102960004DF2156000F0F2FB01214DF2166000F00F
:10297000EDFBCA214DF2176000F0E8FB02214DF299
:10298000186000F0E3FB00214DF2196000F0DEFB5F
:1029900002214DF21A6000F0D9FB01214DF21B60BB
:1029A00000F0D4FB02214DF21C6000F0CFFB34217B
:1029B0004DF21D6000F0CAFB02214DF21E6000F0D6
:1029C000C5FB67214DF21F6000F0C0FB02214DF2F4
:1029D000206000F0BBFB84214DF2216000F0B6FBCB
:1029E00002214DF2226000F0B1FBA4214DF22360E0
:1029F00000F0ACFB02214DF2246000F0A7FBB721F0
:102A00004DF2256000F0A2FB02214DF2266000F09D
:102A10009DFBCF214DF2276000F098FB02214DF283
:102A2000286000F093FBDE214DF2296000F08EFB60
:102A300002214DF22A6000F089FBF2214DF22B6059
:102A400000F084FB02214DF22C6000F07FFBFE21A0
:102A50004DF22D6000F07AFB03214DF22E6000F064
:102A600075FB10214DF22F6000F070FB03214DF239
:102A7000306000F06BFB33214DF2316000F066FBFB
:102A800003214DF2326000F061FB6D214DF23360A5
:102A900000F05CFB5521484600F058FBAA21404657
:102AA00000F054FB5221184600F050FB0821284644
:102AB00000F04CFB0021304600F048FBCC2158468A
:102AC00000F044FB00214BF2011000F03FFB052118
:102AD000504600F03BFB70214FF4374000F036FBCE
:102AE00070214BF2017000F031FB01214FF43840AE
:102AF00000F02CFB03214BF6010000F027FB032123
:102B00004BF6020000F022FB03214BF6030000F01D
:102B10001DFB02214FF43C4000F018FB00214BF656
:102B2000014000F013FB00214BF6024000F00EFBC9
:102B3000D0214FF4494000F009FB02214CF601106E
:102B400000F004FB50214CF6021000F0FFFA502177
:102B50004CF6031000F0FAFA50214CF6041000F085
:102B6000F5FA00214FF4545000F0F0FA55214FF4DB
:102B7000685000F0EBFA4FF488502080782002F083
:102B8000CDF94FF4245020807BE0584579D1E220E4
:102B900020801D2028800220288004202880642096
:102BA00002F0BCF9E0202080012028800A2002F0F9
:102BB0009BF9E0202080032028800C2002F094F96B
:102BC000012020800A2002F08FF9E62020802F20AB
:102BD0002880FF2028802880B02020802020288086
:102BE000002028800320288040F21F302880012008
:102BF000288040F2DF10288000202880B420208028
:102C00000420288040F21F402880002028802E20A9
:102C1000288000202880288028802880B6202080D6
:102C2000022028804FF4037028800020288017207D
:102C3000288015202880002028802880F0202080EF
:102C40000320288029202080D02020800020288078
:102C5000BE20208005202880FE202880012028809A
:102C60000020288028802880B82020800320288009
:102C700001202880BA20208001202880642000F0D4
:102C800019F80020FEF718F804490120C1F8800166
:102C90003846FDF7F9FF1FB0BDE8F08F00802142F4
:102CA000034808B50088ADF80000BDF8000008BD75
:102CB0000008006C0C4A10B5BE211180941C05213F
:102CC000218003F014FC4FF06632084B03F022FC25
:102CD00003F0E0FB208001202080FF2020800020E6
:102CE0002080208010BD0000FE07006C6666044056
:102CF00070B54E4D00232946AA79898841F66314A0
:102D0000012A01D01AB11BE0A14202D118E0A14270
:102D100016D1082814D2DFE800F00406080A0C0EC9
:102D2000101206200CE007200AE0042008E005202D
:102D300006E0012004E0002002E0032000E0022081
:102D4000082812D2DFE800F0110406080A0C0E1061
:102D500080230AE0402308E0C02306E0202304E0AB
:102D6000602302E0A02300E0E02345F21056B142C8
:102D700002D14FF4585000E03620A1F51342413AF9
:102D800003D0A1F5EE42893A01D143F00803194678
:102D900000F0DCF9AA88A2420AD09806288869883F
:102DA00002D5884202D303E0884201D92980688095
:102DB0001F48811CB2426A89028021D100230B8006
:102DC000531C038000230B80931C03802B885B1E05
:102DD0001C0A0C80D21C0280DAB20A80AA89028006
:102DE00000230B80531C038000230B80931C038063
:102DF0006B885B1E1C0A0C80D21C0280D8B212E0C9
:102E000000220A800A802A88521E130A0B80D2B23E
:102E10000A80AA8902800020088008806888401EF5
:102E2000020A0A80C0B2088070BD0000EE010020D6
:102E3000FE07006C2DE9F043DFF8A490294F4A46C5
:102E4000B9F804C09389050A0C0ABE1C5289ACF576
:102E5000C858B8F163080ED0ACF5A048B8F5A26820
:102E60003A80358033D0C0B230803B803480C8B2E5
:102E70003080BDE8F083DFF868C099F80680BCF8C0
:102E800000C0B8F1000F16D03A803580C0B2308053
:102E9000ACF1010C4FEA1C2030800CF0FF003080B8
:102EA0003B803480C8B23080B9F80200401E010A6D
:102EB0003180C0B2DCE7ACEB0000401E80B23A804B
:102EC000002232803280020A3280C0B2E7E7521C10
:102ED0003A80C0B230803B8034805B1C3B80C6E7C8
:102EE000EE010020FE07006C2DE9FF4F83185B1EEA
:102EF0001FFA83FA039B464E0B44A3F101083346A5
:102F0000B788DFF810E19C890D0A5B89A7F5C85CDA
:102F10001FFA88F90EF1020BBCF1630C29D196F867
:102F200006C0BCF1010F24D036881FFA88F7B61A04
:102F3000301A86B2AEF80030330A5846ABF800308B
:102F4000F3B2ABF800303244521E130AABF8003033
:102F5000D2B2ABF80020AEF80040ABF80050C9B2D6
:102F6000ABF80010390AABF80010F9B20180BDE8E7
:102F7000FF8F0244521EC2F30728039AA7F5A04C04
:102F80000A44521E060AC2F30722BCF5A26C774619
:102F9000AEF8003017D0ABF80060C0B2ABF800005C
:102FA000ABF800800AF0FF00ABF800003C80ABF803
:102FB0000050C8B2ABF80000ABF8002009F0FF00E9
:102FC000ABF80000D3E7DC46ABF800605E1C3E8047
:102FD000C0B2ABF80000981C3880ABF80080DB1C56
:102FE0003B800AF0FF00ABF800003C80ABF80050DB
:102FF000601C3880C8B2ACF80000A01C3880ACF867
:103000000020E41C3C8009F0FF00ACF80000AEE7B3
:10301000EE010020FE07006C2DE9F84F82461F46A6
:103020000C468B46580700D0012000EBD7007908EA
:103030004843203AC0B202F0FF090026009041E068
:103040000C2F10D0102F12D0182F3ED1204909EB91
:10305000C90001EB80004FF00008855D28060AD505
:103060001C4802880BE009EB49001B49F1E71B49AA
:1030700001EB0910EFE70A9828B916484288214663
:103080005046FDF775FE6806050E1548641CA4B28F
:103090004088A04219D9A4EB0B00B84209D10AF12B
:1030A00001001FFA80FA0E485C46018851450CD990
:1030B00006E008F1010000F0FF08B8F1080FCDD3D9
:1030C000761CF6B200988642BAD3BDE8F88F0000AD
:1030D000747100084E00002010670008846B00081F
:1030E000EE0100202DE9F84F044600F0FF0810190A
:1030F0000D46DDE90A761FFA80FA58191FFA80F9A1
:103100004FF0000B11E0544502D3E819444685B254
:103110004D450FD23B4629462046CDF800B0FFF77B
:103120007BFF04EB570084B2761C3278A2F12000BA
:103130005E28E8D9BDE8F88F024803490089088075
:1031400070470000EE010020FE07006C024A10806C
:10315000901C018070470000FE07006C38B501210B
:10316000482000F01BFF2024ADF8004010208DF80F
:10317000030003200B4D8DF8020069462846FDF739
:1031800079FC20212846FDF7F8FCADF80040064CFC
:1031900069462046FDF76EFC20212046FDF7EDFC38
:1031A00038BD0000000C014000180140FEE77047E8
:1031B0001CB510A0D0E90010CDE90010082001F0E6
:1031C0000BF905226946302000F05AF905226946BC
:1031D000102000F0A9F8002069460A5CA52A03D156
:1031E000401CC0B20528F8D3052801D001201CBD21
:1031F00000201CBDA5A5A5A5A500000030B587B081
:1032000001214FF4847000F0C9FE4FF48054ADF8F2
:10321000144010208DF817000320294D8DF816005A
:1032200005A92846FDF726FC21462846FDF7A5FC02
:103230004FF4C070234CADF8140005A92046FDF7EB
:1032400019FC4021ADF8141028218DF8171005A99C
:103250002046FDF70FFC4FF4E0712046FDF78BFC94
:1032600001F048F8184D0021284601F0C3F8002469
:10327000ADF800404FF48270ADF80200ADF80840A0
:103280006815ADF80A001820ADF80C000720ADF85D
:103290000440ADF81000ADF80640ADF80E406946A8
:1032A000284601F0BCF80121284601F0A3F80748A0
:1032B000C0F8A0410121C0F89C1107B030BD00004A
:1032C000000C014000200140003800400000244272
:1032D00010B5134C0020C4F8A001052211492A2082
:1032E00004F5D07400F0CCF80121212000F0E6F8BC
:1032F0000121222000F0E2F82821252000F0DEF84C
:103300002021312000F0DAF80F21262000F0D6F835
:103310000F21202000F0D2F80120206010BD000015
:1033200000002442A78000082DE9F0410C4F0E4612
:1033300000211546C7F89C1101F026F880460024AC
:1033400005E0FF2001F020F83055641CE4B2AC42E7
:10335000F7D30120C7F89C014046BDE8F08100008A
:103360000000244210B5074C0021C4F89C1104F55C
:10337000CE7401F009F8FF2001F006F80121216068
:1033800010BD00000000244270B50546102001F079
:1033900023F80720FFF7E6FF04460146272000F048
:1033A0008DF860060AD5202229466120FFF7BCFF70
:1033B000FF21E22000F082F8002070BD012070BDE6
:1033C00010B5164C0020C4F8A00105221449302085
:1033D00004F5D07400F054F811490522491D2A2043
:1033E00000F04EF80121212000F068F80121222090
:1033F00000F064F81A21242000F060F8282125202C
:1034000000F05CF80F21262000F058F80E21202053
:1034100000F054F80120206010BD0000000024429C
:10342000A280000870B50546102000F0D5FF134CAF
:103430000020C4F8A00120222946A02000F020F896
:103440000120C4F8A001D4F818010028FBD10720FE
:10345000FFF788FF04460146272000F02FF8E0061A
:1034600005D5FF21E12000F029F8102070BDA0064D
:1034700001D5202070BDFF2070BD00000000244257
:103480002DE9F0410C4F0D4600211646C7F89C115E
:1034900000F07AFF8046002405E015F8010B00F0EB
:1034A00073FF641CE4B2B442F7D30120C7F89C0157
:1034B0004046BDE8F08100000000244270B50D4692
:1034C000084C01460020C4F89C01084604F5CE745F
:1034D00000F05AFF0646284600F056FF0120206003
:1034E000304670BD0000244230B50F23C278017809
:1034F0000125F2B1144A126801F1E02102F4E06200
:10350000C2F5E062120AC2F10404D3404278A2403C
:1035100084781C401443220181F80024007800F0D4
:103520001F018D404009800000F1E020C0F80051EB
:1035300030BD01F01F0085404809800000F1E02007
:10354000C0F8805130BD00000CED00E00249084396
:1035500002490860704700000000FA050CED00E029
:103560000021801C05280BD2DFE800F003050A07C4
:103570000900B02104E0982102E0182100E0302188
:10358000552000F097BE70B5802622255E24801C51
:10359000052813D2DFE800F00307120B0F004026C6
:1035A00011252F240AE066261B254B2406E09926C8
:1035B0002825712402E0C02633258D2431464F2072
:1035C00000F078FE3146502000F074FE00215120BA
:1035D00000F070FE2946522000F06CFE2146532078
:1035E00000F068FE3146542000F064FEBDE87040F3
:1035F0009E21582000F05EBE4021801C05280BD281
:10360000DFE800F003050A070900302104E0382153
:1036100002E0502100E06021562000F04BBE000087
:10362000F8B50024012140F23D1000F0B7FC4FF442
:103630008075ADF8005048268DF803600320354FA3
:103640008DF8020069463846FDF714FA29463846D7
:10365000FDF793FA1820ADF800002F4F10258DF8D4
:10366000035069463846FDF705FA18213846FDF73C
:1036700084FAFF20ADF800008DF803606946274802
:10368000FDF7F8F94020ADF80000254E8DF8035005
:1036900069463046FDF7EEF940213046FDF76DFAF8
:1036A0004FF44046ADF800608DF803501D4D69465B
:1036B0002846FDF7DFF931462846FDF75EFA01217D
:1036C0001948FDF725FA00F0BFFC8021122000F018
:1036D000F1FD08B10120F8BD322001F005FC0B20FE
:1036E00000F044FD732804D10A2000F03FFD762845
:1036F00001D00220F8BD0D4D05EB4400417815F8CE
:10370000140000F0D7FD641CA4B2A82CF4D3002050
:10371000F8BD000000080140000C0140001001400D
:10372000001401400020014000023000D07E00085B
:1037300010B505283AD2DFE800F0030D17212B0061
:10374000E721132000F0B6FD0021012000F0B2FDBA
:10375000002126E0E521132000F0ACFD5A210120D4
:1037600000F0A8FD5C211CE0E521132000F0A2FD83
:103770005821012000F09EFD602112E0E521132078
:1037800000F098FD8421012000F094FD4C2108E018
:10379000E521132000F08EFD9621012000F08AFD26
:1037A0004021BDE81040022000F084BD10BD10B5DE
:1037B00007283BD2DFE800F0040608121C262C0084
:1037C00004210CE0242100E014213A2000F072FDD5
:1037D0008021672000F06EFD802122E014213A2034
:1037E00000F068FD8021672000F064FDC02118E032
:1037F00014213A2000F05EFD4021672000F05AFDC0
:1038000040210EE014213A2000F054FDC021E0E7F1
:1038100014213A2000F04EFD4021672000F04AFDBF
:10382000A021BDE81040682000F044BD10BD2DE986
:10383000F041054600EB420086B201EB430084B242
:103840000F46B4F5447F02D9A4F54474A4B2032012
:1038500000F08CFC06F00302294600F0F00062F351
:103860009F010143032000F025FDC5F387011920C6
:1038700000F020FDC6F387011A2000F01BFD322066
:1038800000F074FCC7F3C701172000F013FDC4F368
:10389000C701BDE8F041182000F00CBD2DE9F05F34
:1038A000DFF8F0A09AF80000002871D00420FFF79C
:1038B0001FFA39494FF4A0728888A0F5C853633BBA
:1038C00008D0A0F5AA43103B14D0A0F5A643103BA6
:1038D00010D01FE008884988F038A1F5A07101EBED
:1038E000D17100EBD0701346C1F34F01C0F34F000C
:1038F000F0220DE008884988A0F5A070F03901EBAE
:10390000D17100EBD070C1F34F01C0F34F00F02331
:10391000FFF7EAFAFFF710FC20484FF00009C0F863
:10392000B8911F4D10232B60A5F1040CCCF800308A
:103930002B600121C0F8B811CCF80030194E1A4C98
:103940001A4FDFF86CB048464FF6FF784FF4963EBA
:103950002B60B1683A88A154521C3A80CCF80030F0
:1039600008EA01212B60B268CCF80030D2B20A43D9
:10397000ABF80020401C7045EAD30E488AF800904E
:103980000178491C0170BDE8F05F0020FFF7B0B975
:10399000BDE8F09F56000020EE0100200000244208
:1039A000140C014000100140CC0100200000002058
:1039B0000008006C5900002010B5001D092815D220
:1039C000DFE800F01F1D12100E0C0A070500482149
:1039D00000E03821062409E02821FBE71821F9E757
:1039E0000821F7E7082100E018210E249B2000F0B1
:1039F00061FC2146BDE81040AB2000F05BBC2821F3
:103A0000F3E73821F1E710B5011D08290BD80401AF
:103A10004034E1B2A72000F04DFCE1B2BDE8104017
:103A2000A82000F047BC10BD011D082906D82021A0
:103A300001EB8000C1B29C2000F03CBC704700004C
:103A4000F8B50024012140F23D1000F0A7FA4FF430
:103A50008075ADF8005048268DF803600320424F72
:103A60008DF8020069463846FDF704F829463846C5
:103A7000FDF783F81820ADF800003C4F10258DF8B5
:103A8000035069463846FCF7F5FF18213846FDF724
:103A900074F8FF20ADF800008DF8036069463448E3
:103AA000FCF7E8FF4020ADF80000324E8DF80350DF
:103AB00069463046FCF7DEFF40213046FDF75DF8F1
:103AC0004FF44046ADF800608DF803502A4D69462A
:103AD0002846FCF7CFFF31462846FDF74EF8012176
:103AE0002648FDF715F800F0AFFA8021122000F00B
:103AF000E1FB08B10120F8BD322001F0F5F91C20EE
:103B000000F034FB4FF6FF7505EA00261D2000F09B
:103B10002DFB40EA0601A1F5FE40A23803D018A013
:103B2000FCF7A4FBE6E70A2000F020FB05EA0025ED
:103B30000B2000F01BFB40EA0501A1F5EE40213807
:103B400004D012A0FCF792FB0220F8BD124D05EB49
:103B50004400417815F8140000F0ACFB641CA4B2DA
:103B6000412CF4D30020F8BD00080140000C0140B6
:103B7000001001400014014000200140000230000C
:103B80004D49443A25640D0A000000004849443A72
:103B900025640D0A000000002080000810B50628EA
:103BA00047D2DFE800F003061D27313CFF21132038
:103BB00009E0FD21132000F07DFB5A21012000F0D7
:103BC00079FB5C2129E000F075FB65210E2000F0F7
:103BD00071FB00212D2000F06DFB00212E2024E040
:103BE000FD21132000F066FB5821012000F062FB4C
:103BF000602112E0FD21132000F05CFB84210120F4
:103C000000F058FB4C2108E0FD21132000F052FB8E
:103C10009621012000F04EFB40210220D3E7FF2136
:103C2000132000F047FBE5210E20BDE8104000F016
:103C300041BB10BD10B5072840D2DFE800F00406F4
:103C400009131D273100062103E04621A62031E09B
:103C50002621A62000F02EFB8021602000F02AFB08
:103C6000802126E01E21A62000F024FB8021602078
:103C700000F020FBC0211CE01E21A62000F01AFB52
:103C80006021084600F016FB602112E01E21A620EC
:103C900000F010FBA021602000F00CFB402108E0A8
:103CA0001E21A62000F006FB4021602000F002FB50
:103CB000A0216120BDE8104000F0FCBA10BD2DE944
:103CC000F0470C4605464AB3C5F5207000EBD070AE
:103CD000C0F34F07C4F5F07000EBD070C0F34F068F
:103CE0000621122000F0E6FA2321172000F0E2FA64
:103CF000A021182000F0DEFA0721192000F0DAFADE
:103D0000F0211A2000F0D6FA0021322000F0D2FA79
:103D1000A021292000F0CEFAF02128E0C5F5A070FE
:103D200000EBD070C0F34F07C4F1F00000EBD0708F
:103D3000C0F34F064621122000F0BCFA3F211720A5
:103D400000F0B8FA5021182000F0B4FA032119202D
:103D500000F0B0FA78211A2000F0ACFA00213220ED
:103D600000F0A8FA5021292000F0A4FA78212C2094
:103D700000F0A0FA172000F0F9F900EB9700C1B2AB
:103D8000172000F097FAC5F387018A46182000F043
:103D900091FA192000F0EAF900EB5600C1B219209F
:103DA00000F088FAC4F3470189461A2000F082FA2D
:103DB000322000F0DBF98046F007400E07F00301E7
:103DC00004F0010640EA011040EA860105F0030410
:103DD000214341EA0801322000F06CFA51462920C3
:103DE00000F068FA49462C2000F064FA2A2000F01E
:103DF000BDF944EA080444EA8601BDE8F0472A20F8
:103E000000F058BA2DE9F05F4948007800287CD0CE
:103E10000420FEF76DFF474CF0234FF4A07220887A
:103E20006188A0F5A070F03901EBD17100EBD07082
:103E3000C1F34F01C0F34F00FFF756F8A088A0F57B
:103E4000C851633911D120886188A0F5A070F0397C
:103E500001EBD17100EBD070C1F34F01C0F34F0003
:103E60004FF4A073F022FFF73FF8FFF765F93248EF
:103E70000021C0F8B811314F10253D603C1F25606E
:103E80003D600121C0F8B8112560FFF799FADFF80D
:103E9000B0B0DFF8B0900026A2464FF6FF780024BD
:103EA0003D60DBF80800284BB9F800105854491C55
:103EB00089B2CAF8005008EA00203D60DBF808200B
:103EC000D2B210435A54491C89B2A9F80010CAF85A
:103ED00000501E4A1080202907D30020A9F80000B6
:103EE0001948FFF79FFA2028FAD1641CB4F5A07F87
:103EF000D6D3761CF02ED2D3FFF7EAF91248FFF79B
:103F000043FA0028FAD112A000E00FE0FCF7AEF966
:103F1000FFF756FA06490020087012490878401C3D
:103F20000870BDE8F05F0020FEF7E2BEBDE8F09F3C
:103F300056000020EE01002000002442140C014035
:103F40000010014000000020CC0100200008006C9F
:103F5000CAD5B5BDCDACB2BDD0C5BAC5A3A10D0AF9
:103F6000000000005900002070470000044A0029AA
:103F7000516901D0014300E0814351617047000065
:103F800000100240044A0029D16901D0014300E039
:103F90008143D1617047000000100240044A0029AB
:103FA000916901D0014300E08143916170470000B5
:103FB0000010024030B5204A5168204B11F00C012E
:103FC00003D0042901D0082901D0036012E0516810
:103FD000536801F470114FF0020413F4803F04EBB6
:103FE000914102D053689B0301D5154B00E0134B60
:103FF0005943016051680F2303EA1111114B5C5CB6
:104000000168E14041605468072505EA14241C5DFD
:1040100021FA04F48460546805EAD4241B5DD94075
:10402000C1605268032303EA9232064B1B1F9A5C5D
:10403000B1FBF2F1016130BD0010024000127A00C4
:1040400000093D006C00002038B501214FF490704C
:10405000FFF7A4FF4FF40055ADF8005048208DF84D
:1040600003000320114C8DF8020069462046FCF73E
:1040700001FD29462046FCF780FD0820ADF8000030
:1040800010200B4D8DF8030069462846FCF7F2FC22
:1040900008212846FCF771FD606820F4700060601C
:1040A000606840F44010606038BD000000200140AE
:1040B0000014014070B5322000F030FF0C4D01209B
:1040C000C5F8B4010B4EC6F88C01322005F5DA753F
:1040D00006F5C67600F022FF00243460322000F09E
:1040E0001DFF2C60BDE87040322000F017BF0000BB
:1040F00000002442008022422DE9F047184F00249E
:10410000786820F470007860786840F40000786087
:10411000DFF85090144E08254FF00108A2463220D7
:1041200000F0FCFEC6F88C816006040ED9F834015C
:1041300008B1641CE4B2322000F0F0FEC6F88CA195
:104140006D1E15F0FF05EAD1786820F470007860E4
:10415000786840F4401078602046BDE8F0870000A1
:1041600000200140000024420080224210B5044695
:1041700000F022F8422000F055F8642000F0CEFE56
:10418000204600F04FF8642000F0C8FE00F02EF842
:10419000642000F0C3FE00F00FF8432000F042F866
:1041A000642000F0BBFEFFF7A7FF0446FFF782FF85
:1041B00000F01CF8204610BD70B50A4E0120C6F86C
:1041C000B401094DC5F88C01322005F5C67506F518
:1041D000DA7600F0A3FE00243460322000F09EFE68
:1041E0002C6070BD000024420080224270B50B4C50
:1041F0000020C4F8B401322004F5DA7400F08EFE19
:1042000007480125C0F88C51322000F087FE256058
:10421000BDE87040322000F081BE00000000244262
:10422000008022422DE9F04700241F4E1F4F054613
:10423000A0464FF00109280601D5484600E0404657
:10424000C6F8B4016806050E322000F067FEC7F814
:104250008C91322000F062FEC7F88C81641CE4B2BD
:10426000082CE8D3124C606820F47000606060682D
:1042700040F400006060322000F050FEC7F88C91DE
:10428000322000F04BFED6F8340100B10120C7F80F
:104290008C81616821F470016160616841F44011B2
:1042A0006160BDE8F08700000000244200802242E7
:1042B0000020014070B50D4606460024FFF77CFF44
:1042C0004220FFF7AFFF00B10124642000F026FE7A
:1042D0003046FFF7A7FF00B10124642000F01EFE66
:1042E0002846FFF79FFF00B10124FFF77FFF20461C
:1042F00070BD000030B587B001210820FFF74EFEE9
:1043000001218803FFF73EFE4FF46044ADF81440EE
:1043100018208DF817000320194D8DF8160005A9F7
:104320002846FCF7A7FB21462846FCF726FC002080
:10433000ADF800004FF48271ADF80210ADF8040042
:104340000221ADF806100121ADF808104902ADF8C0
:104350000A103821ADF80C10ADF80E000720094CFA
:10436000ADF810006946204600F059F801212046BA
:1043700000F040F8FF2000F007F807B030BD000063
:10438000000C01400038004070B506460024114D75
:1043900003E0641CE4B2C82C0FD80221284600F0C8
:1043A00033F80028F5D03146284600F036F80024CE
:1043B00005E0641CE4B2C82C01D9002070BD0121C5
:1043C000284600F021F80028F3D0284600F023F812
:1043D000C0B270BD0038004001460548028822F096
:1043E0003802028002880A430280012100F002B8EC
:1043F000003800400029018802D041F0400101E06E
:1044000021F04001018070470246002012890A42D3
:1044100000D001207047808970478181704730B596
:1044200002884C8802F441530A88CD8822438C8844
:104430002C4322430C8922434C8922438C892243FA
:10444000CC8922431A430280828B22F40062828349
:10445000098A018230BD70470CB5002226480092BF
:104460000192016841F4803101604FF4A06301685A
:1044700001F4003101910099491C0091019911B991
:1044800000999942F3D10168890333D50121019143
:104490001A490A6842F010020A600A6822F0030210
:1044A0000A600A6842F002020A604168416041689D
:1044B0004160416841F480614160416821F47C11B0
:1044C0004160416841F4E8114160016841F0807148
:1044D000016001688901FCD5416821F00301416058
:1044E000416841F0020141604168C1F38101022944
:1044F000FAD10CBD01920CBD001002400020024018
:104500004FF0E0210428086903D020F0040008617E
:10451000704740F00400FAE7704700000F4810B5FC
:10452000016841F00101016041680D4A114041609C
:1045300001680C4A11400160016821F4802101608A
:10454000416821F4FE0141604FF41F018160FFF7D3
:1045500083FF05494FF00060086010BD0010024065
:104560000000FFF8FFFFF6FE08ED00E070B5048CD8
:1045700024F001040484058B048C4FF6FF7606EAD0
:104580000313134325F0F3050E4A2B4390420ED03C
:104590000D4A90420BD0B0F1804F08D00B4A9042A8
:1045A00005D00B4A904202D00A4A904202D124F030
:1045B000020201E024F00A020A4342F001010383EF
:1045C000018470BD002C0140003401400004004013
:1045D00000080040000C0040F0B5048C24F01004EA
:1045E0000484078B048C4FF6FF7527F4734705EAA4
:1045F00003333B4305EA02221A43114B05EA011635
:1046000098420ED00F4B98420BD0B0F1804F08D09B
:104610000D4B984205D00D4B984202D00C4B98425E
:1046200005D124F02001314341F0100104E024F0D1
:10463000A0030B4343F0100102830184F0BD00008E
:10464000002C0140003401400004004000080040FC
:10465000000C004010B50A4C0121204600F023F95F
:1046600000280AD00121204600F003F90549D1F8BD
:10467000940118B10020C1F8940110BD0120FAE79F
:10468000000400400000234210B50C4C01212046DC
:1046900000F009F901280AD1094801698847002179
:1046A000204600F0B3F96421204600F0ADF9204621
:1046B000BDE81040012100F0DCB800000008004017
:1046C000D8000020F0B50C46074687B0012108202D
:1046D000FFF758FC01210420FFF760FC0220ADF831
:1046E000180003258DF81A5004268DF81B6006A9C2
:1046F0001248FCF7BFF9ADF81070ADF80C4000247B
:104700000F4FADF81240ADF80E4003A9384600F047
:10471000A7F90120ADF80400ADF80060ADF8024043
:10472000ADF80640ADF808506946384600F0C8F8C4
:104730000121384600F0A0F807B0F0BD00080140A4
:10474000000C004070B51F4C1F4D2078000633D47C
:104750000121284600F0A7F838B12178480604D591
:10476000C843800612D0491C21700221284600F05F
:104770009AF808B3217848060FD541F080002070E0
:10478000284600F083F86080002112E041F08000AC
:1047900020704FF6FF706080E7E700202070608097
:1047A0000146284600F032F92078022140F040000E
:1047B0002070284600F022F92846BDE87040032109
:1047C00000F057B858000020000C004070B5094DAB
:1047D0000121284600F067F830B1074C07A0617846
:1047E000FBF744FD002060702846BDE870400121C1
:1047F00000F03FB800100040580000206672616D64
:10480000653A25646670730D0A0000007FB50D4699
:10481000044601211020FFF7B5FBADF8044000204D
:10482000ADF80050104CADF80600ADF80200694636
:10483000204600F015F901224121204600F0D6F86B
:104840000121204600F018F836208DF80C000120D8
:104850008DF80D0003218DF80E108DF80F0003A8C0
:10486000FEF742FE7FBD000000100040C9430182F8
:104870007047C943018270470029018802D041F086
:10488000010101E021F0010101807047808E704735
:10489000008F7047808C704702460020128A0A42BF
:1048A00000D00120704702460020138A92890B42F3
:1048B00002EA010202D0002A00D001207047000065
:1048C0002DE9F84F0D4604460888434FDFF80CC128
:1048D000DFF80C81DFF80C914988AA882B894FF00A
:1048E000804A48B3042830D04FF6FF760828934614
:1048F00034D0208C9E4620F480502084A38B208CC2
:1049000006EA0132009223F4734306EA0B221A43AB
:1049100006EA0E331343BC420AD0644508D054451E
:1049200006D0444504D04C4502D02F4A944245D18C
:1049300020F40050009943E02046FFF717FEE98875
:104940002046BDE8F84F00F063B82046FFF744FE6C
:10495000E9882046BDE8F84F00F062B8208C20F4CA
:1049600080702084B4F81CE0208C06EA031306EA69
:1049700001222EF0F30E43EA0B0343EA0E030092EA
:10498000BC420AD0644508D0544506D0444504D002
:104990004C4502D0144A944203D120F4007000998F
:1049A00001E020F42060084340F48070A383208459
:1049B000E9882046BDE8F84F00F03EB820F40240F8
:1049C000084340F48050A3832084E9882046BDE852
:1049D000F84F00F039B80000002C014000340140CD
:1049E0000004004000080040000C0040002A8289BA
:1049F00001D00A4300E08A4382817047028C22F092
:104A000002020A430284704781857047818470479F
:104A1000028B22F00C020283028B0A43028370474E
:104A2000028B22F440620283028B4FF6FF7303EA8B
:104A300001210A4302837047828B22F00C02828399
:104A4000828B0A4382837047828B22F44062828386
:104A5000828B4FF6FF7303EA01210A43828370477A
:104A600030B502881B4C1C4DA0420DD0A8420BD083
:104A7000B0F1804F08D0194B984205D0184B98429E
:104A800002D0184B984203D122F070034A881A438F
:104A9000154B984206D0154B984203D022F4407330
:104AA000CA881A4302808A8882850A880285A042C1
:104AB0000AD0A84208D00E4A904205D00D4A904232
:104AC00002D00D4A904201D1097A018601218182EA
:104AD00030BD0000002C01400034014000040040C3
:104AE00000080040000C004000100040001400408E
:104AF00000400140004401400048014070B50446B8
:104B0000002504E000F008F8A84200D90546641E1C
:104B1000E4B2F7D2284670BD70B500F06FF84FF6DA
:104B20000B640B4D08E0FFF7B5FEA04204D9284600
:104B3000BDE87040FFF7AEBE04212846FFF7ACFE8B
:104B400000282846EFD0BDE87040FFF7A1BE000066
:104B5000000C004030B5401E81B285B04FF6FF70AA
:104B6000FFF7B0FD00246D46FFF7D6FF25F81400CF
:104B70000A2000F0B9F9641CE4B20A2CF4D3002135
:104B80004C1CE0B20BE035F8113035F810209342A0
:104B900003D925F8112025F81030401CC0B20A288E
:104BA000F1D3E1B20929EBD30021022035F810201E
:104BB000401C1144C0B289B20828F7D30620B1FBCB
:104BC000F0F0074C6080618806A0FBF74FFB60881F
:104BD000B0F5004F02D3012005B030BD0020FBE747
:104BE00052000020747061645F64656661756C7466
:104BF0005F76616C3A25640D0A00000038B501212A
:104C00000420FFF7CBF90220ADF8000010208DF84A
:104C1000030003200F4C8DF8020069462046FBF785
:104C200029FF02212046FBF7A6FF052000F05CF9D2
:104C3000094D00212846FFF7E9FE05212846FFF728
:104C400018FE04218DF8031069462046FBF712FF79
:104C500038BD000000080140000C004070B50100A4
:104C60000D4C4FF000054FF0030002D0002106204C
:104C70002170FFF743FF618864318842207804D9AE
:104C800000B901250320207000E010B1C0B2401E21
:104C90002070284670BD0000520000207FB50D46F0
:104CA000044601210420FFF76DF9ADF8044000200F
:104CB000ADF80050104CADF80600ADF802006946A2
:104CC0002046FFF7CDFE012241212046FFF78EFE50
:104CD0001E218DF80C1003218DF80D108DF80E108B
:104CE00001208DF80F0003A8FEF7FEFB01212046EE
:104CF000FFF7C2FD7FBD00000008004070B5154CF5
:104D000040F22551204600F035F800280ED020460C
:104D100000F0BEF8104AC1B21088030406D444045F
:104D20004FF0000306D50A2901D0138070BD40F46E
:104D300000400DE00D2909D0C0F30D04074D401CC3
:104D400080B229551080C728EFD870BD40F480404C
:104D5000108070BD0038014060000020FC01002080
:104D60000029818902D041F4005101E021F4005171
:104D70008181704770B501F01F0501260024C1F341
:104D8000421306FA05F2012B0FD0022B0FD0838AB3
:104D90004FEA11210088134206FA01F600EA0600E4
:104DA00001D000B10124204670BD8389F0E7038A59
:104DB000EEE710B5C1F3421301F01F040121A14039
:104DC000012B07D0022B07D01430002A026805D02F
:104DD0000A4304E00C30F8E71030F6E78A4302603B
:104DE00010BD000030B50446008A85B00D464CF673
:104DF000FF710840E98801432182A0894EF6F31132
:104E00000840A9882A8911436A8902431143A18174
:104E1000A08A4FF6FF410840A9890143A182684654
:104E2000FFF7C8F81948844201D1039800E00298BE
:104E3000A189090400EBC00101EB0010296801D52C
:104E4000490000E08900B0FBF1F06422B0FBF2F110
:104E500009010B096FF018056B4300EB8300A38970
:104E60001D044FF0320306D503EBC000B0FBF2F097
:104E700000F0070005E003EB0010B0FBF2F000F0DB
:104E80000F000843208105B030BD0000003801400C
:104E90008088C0F308007047FEE730380A2801D246
:104EA00001207047002070477047000010B56FF078
:104EB0000400FFF725FB094809490068B0FBF1F041
:104EC0000849C0B200EB40020870C2EBC0104FF6B8
:104ED000FF7202EAC000488010BD000038000020C8
:104EE00000127A005C0000200B49498848434FF0CB
:104EF000E021486100238B61086940F001000861EE
:104F00000869C20701D0C003FAD5086920F0010082
:104F100008618B61704700005C0000200B49097834
:104F200048434FF0E021486100238B61086940F05D
:104F3000010008610869C20701D0C003FAD50869F9
:104F400020F0010008618B61704700005C000020C8
:104F500004490A885206FCD5024AC1B2121D1180CA
:104F6000704700000038014086B04FF00008C3468B
:104F7000C146C246474646464546FFF797FF4FF4AF
:104F8000A060FEF7E3FA4FF4E13000F0D3FAFE48F8
:104F9000416848208847FEF7E1F8FBF7F1FDFBF791
:104FA00061FF0620FFF7D6FDF8494FF47840102442
:104FB0000880F7A0CDE900402346C82232211E20F8
:104FC000FEF790F8F6A0CDE900401023C822462154
:104FD0001E20FEF787F8F6A0CDE900401023C82276
:104FE0005A211E20FEF77EF8F5A0CDE900401023DF
:104FF000C8226E211E20FEF775F8F4A0CDE900400E
:105000001023C82282211E20FEF76CF8F3A0CDE900
:1050100000401023C82296211E20FEF763F8F3A05B
:10502000CDE900401023C822AA211E20FEF75AF81D
:10503000F2A0CDE900401023C822BE211E20FEF7B9
:1050400051F8F2A0CDE900401023C822D2211E2041
:10505000FEF748F8F1A0CDE900401023C822E62170
:105060001E20FEF73FF8FEF7C9F8FEF7A1F808B1D9
:10507000F0A000E0F4A0FBF7F9F8FEF7A1F9FEF7C5
:10508000DFFCE8B1FEF7CCFA002869D01020F3A1CC
:10509000CDE900010346C822E6211E20FEF722F8D2
:1050A000C820FFF721FF4FF6FF700090F623EF2294
:1050B000E6211E20FBF7B2FEC820FFF715FFDEE752
:1050C0001020ECA1CDE9000103460124C822E6210D
:1050D0001E20FEF707F80020FBF770FD01280CD01A
:1050E00002280CD008F1010000F0FF08B8F1640FAD
:1050F0001BD0B8F1C80F23D02EE0002200E001221F
:10510000F0214FF4A070FEF7DAFD4846FEF746FDA9
:105110003846FEF778FC3046FEF74EFC2846FEF790
:1051200083FC5046FEF786FD3FE01020D7A1CDE975
:1051300000010346D222FA211E20FDF7D3FF0BE027
:105140004FF6FF7000904FF48573D222FA211E2093
:10515000FBF764FE4FF000080520FFF7C5FEBAE735
:105160001020CFA1CDE9000103460224C822E62188
:105170001E20FDF7B7FF40F2DC50FFF7B5FE4846B2
:10518000FEF7D6FA3846FEF7FEF93046FEF7E8F9A4
:105190002846FEF731FA5046FEF709FB4FF4A0739C
:1051A000F022B0210C20FEF742FBC3490020C1F8D9
:1051B000BC0141F61F4142F21070FFF727FBFBF7DD
:1051C0003DFB0020FBF760FD0020FBF7F7FC00280B
:1051D00074D04FF0140B012806D0022821D00328E8
:1051E00042D004286AD162E009F10100C0B28146D0
:1051F000012C02D0022C08D00EE0B9F1050F01D924
:1052000000208146FEF7CAFC06E0B9F1040F01D97F
:1052100000208146FEF78CFAA84951F82920A8A160
:1052200068E07F1C7FB2012C02D0022C0DD018E068
:10523000042F02DD6FF0030703E017F1040F00DA1B
:1052400004273846FEF7DFFB0BE0022F02DD6FF08C
:10525000010703E017F1020F00DA02273846FEF7D4
:1052600092F93A4697A145E0761C76B2012C02D01D
:10527000022C0DD018E0042E02DD6FF0030603E0CF
:1052800016F1040F00DA04263046FEF795FB0BE01A
:10529000022E02DD6FF0010603E016F1020F00DAC4
:1052A00002263046FEF75CF932468AA122E06D1CE8
:1052B0006DB2012C03D0022C0ED019E01DE0042D9C
:1052C00002DD6FF0030503E015F1040F00DA042599
:1052D0002846FEF7A9FB0BE0022D02DD6FF0010569
:1052E00003E015F1020F00DA02252846FEF784F9E3
:1052F0002A467CA102A8FAF7C5FF0020FFF7AEFC02
:10530000D8B10AF10100C0B28246062801D90020B6
:105310008246012C02D0022C03D004E0FEF78AFC66
:1053200001E0FEF744FA654902A8183151F82A2035
:1053300063A1FAF7A7FF4FF0140B012C02D0022C47
:1053400003D004E0FEF75EFD01E0FEF7A7FABBF133
:10535000000F17D0664902AB102208884988CDE9B2
:105360000023A1F5A07101EBD1713C2202EB610198
:10537000F0381E2200EBD07002EB600089B280B2E0
:105380001023B7E0BDE00000D80000204E00002050
:10539000576172536869702053544D3332000000D6
:1053A000202020204F5637373235202020000000A3
:1053B00041544F4D40414C49454E54454B0000002F
:1053C000323032342F30352F323500004B455930D2
:1053D0003A4C69676874204D6F6465004B455931DC
:1053E0003A53617475726174696F6E004B4559323E
:1053F0003A4272696768746E657373004B45595F12
:1054000055503A436F6E7472617374005450414446
:105410003A45666665637473000000004F5637377F
:1054200032355F4F563736373020496E69742E2E2D
:105430002E0000004E524632344C3031B2BBB4E63E
:10544000D4DAA3A10D0A00004E524632344C30315A
:10545000B4E6D4DAA3A10D0A000000004F56373796
:1054600032355F4F5637363730204572726F7221B2
:10547000210000004F563737323520496E697420BD
:105480004F4B202020202020200000004B45593089
:105490003A5156474120204B4559313A5647410031
:1054A0004F563736373020496E6974204F4B2020D5
:1054B00020202020200000000000244204000020C2
:1054C0002573000053617475726174696F6E3A25BB
:1054D000640000004272696768746E6573733A25F0
:1054E00064000000436F6E74726173743A25640047
:1054F000EE010020C822FDF7F5FDABF1010000F040
:10550000FF0B08F1010000F0FF08B8F10F0FFFF4E6
:105510005BAE06494FF00008D1F8940118B10020A5
:10552000C1F8940150E60120FAE700000080214212
:105530000068704770B5054686B0012144F204004A
:10554000FEF72CFD4FF40070ADF8100003248DF829
:10555000124018201D4E8DF8130004A93046FBF7A9
:1055600089FA3015ADF8100004208DF8130004A955
:105570003046FBF77FFA25208DF814008DF8154092
:105580008DF8164001208DF8170005A8FDF7ACFF37
:105590000020ADF80400ADF80600ADF80800ADF845
:1055A0000C000C200A4CADF80A0000956946204614
:1055B000FFF718FC012240F225512046FFF7F9FBC6
:1055C00001212046FFF7CCFB06B070BD000801406A
:1055D0000038014070B594B0064613AB11AA694675
:1055E00000F0D8F9002824D18DF840001D4C042586
:1055F00014E0206805EBC10113AB405812AA08A9BA
:1056000000F0C8F9002814D1694608A800F0EAFBA8
:1056100088B19DF84000401C8DF84000207D9DF829
:1056200040108842E5D8207D9DF8401088420ED178
:10563000042014B070BD9DF848009DF844108842C5
:1056400001D90220F5E79DF84000A075EBE710A90D
:10565000304600F053FA0028EBD19DF84000607509
:105660000020E6E7D80000202DE9F0417E4E9AB0F8
:10567000B57D307DA8427CD90421306801EBC5019D
:1056800019AB405818AA10A900F084F910A977A006
:10569000FAF7ECFD00240DF1180832E0308B0121FF
:1056A000A140084217D0222172A0FAF7DFFD204660
:1056B00000F08CFA811970A02431FAF7D7FD22216D
:1056C0006CA0FAF7D3FD204600F080FA3044243075
:1056D00048F824000BE0204600F078FA3044416A94
:1056E00048F82410F07D00B364A0FAF7BFFD9DF8E0
:1056F0006000401E844202D062A0FAF7B7FD641C2D
:10570000E4B29DF860008442C8D35FA0FAF7AEFD12
:1057100000F0A6FA707D0B2814D2DFE800F0080D27
:1057200031384048525E6B78890058A0DDE7306818
:1057300050F83500804704E0306850F8351006987E
:105740008847074600F054FA9DF8640001286ED09F
:105750004FA0FAF78BFD96F8EC0000280DD0D6F894
:10576000F0000A21B0FBF1F201FB1202B0FBF1F1F3
:1057700000E002E047A0FAF779FD1AB0BDE8F08139
:10578000306850F83520DDE906019047D9E73068E8
:1057900006AC50F8353094E807009847D1E73068F8
:1057A00006AF50F8354097E80F00A047C9E70A98C0
:1057B0000090306806AF50F8354097E80F00A047DA
:1057C000BFE7DDE90A01CDE90001306806AF50F816
:1057D000354097E80F00A047B3E70AAB06AF93E860
:1057E00007008DE80700306850F8354097E80F0053
:1057F000A047A6E70AAC06AF94E80F008DE80F00BB
:10580000306850F8354097E80F00A04799E70BAC97
:1058100006AF94E80F0001AC84E80F000A980090EE
:10582000306850F8354097E80F00A04789E711E04D
:105830000CAC06AF94E80F0002AC84E80F00DDE981
:105840000A01CDE90001306850F8354097E80F00B3
:10585000A04776E7F07D394618B116A0FAF706FDA5
:1058600079E717A0FAE70000D80000200D0A257399
:1058700028000000256300002573000030582558DB
:10588000000000002C00000029000000256C7500BD
:105890003B0D0A0046756E6374696F6E2052756E1B
:1058A0002054696D653A25642E2531646D730D0AA7
:1058B000000000003D305825583B0D0A0000000054
:1058C0003D256C753B0D0A00F0B500252E462F4690
:1058D0002C4603782C2B03D0292B04D01BB103E0DA
:1058E00014B9012600E05CB317B1222B26D026E0C4
:1058F000A3F1300CBCF1090F15D9A3F1610CBCF177
:10590000050F10D9A3F1410CBCF1050F0BD9582B91
:1059100009D0782B07D0222B0CD0202B1ED02C2B7B
:105920001CD0FF270CE05EB9612B00D3203B01F8AF
:10593000013B13E026B901273C460FE0002426B1C5
:105940000020087017702846F0BD3CB15C2B02D1D6
:105950006D1CEDB2401C037801F8013B6D1CEDB2EB
:10596000401CB6E730B5002515700AE001F8014B80
:105970001478401C641CE4B214709C4201D30120D2
:1059800030BD0478202C01D0002CEFD10D70002008
:1059900030BD00002DE9FF4F002482B089469846B3
:1059A000A2462746012526462246EB46029915E0E7
:1059B000202810D002F07F03052B0CD202B98022E0
:1059C00002F07F03042B01D12A280AD1521C0BF8C4
:1059D0000300D2B201E0852A04D0491C08780028CF
:1059E000E6D16AB102F07F0200200BF8020041A16B
:1059F000584600F0F7F938B1012188F8001000226C
:105A00004FF00008029B15E0002088F80000F6E740
:105A100008F1010000F0FF0813F8010F202801D061
:105A20002A2807D1184600F085F9282802D02A280C
:105A300000D0C2461878282801D00028E8D1029961
:105A4000BAF1000F01D05144491C4FF00008434601
:105A5000087888B1282804D0292806D0222810D018
:105A600011E083B9641CE4B20DE063B924B1641E93
:105A700014F0FF0402D00DE04FF00108012F27D0F1
:105A80002FE04BB100234CB12C280CD0202816D08D
:105A9000282814D05AB110E00123F4E7202815D0AB
:105AA00009F8010B12E00125521CD2B207E0052EC5
:105AB00003D20BF80600761CF6B26D1CEDB2012C79
:105AC00004D1022D02D103257F1CFFB2491CBFE780
:105AD00000200BF8060007A1684600F083F900B922
